ARM GAS  /tmp/cc3bFnyL.s 			page 1


   1              		.cpu cortex-m4
   2              		.eabi_attribute 27, 1
   3              		.eabi_attribute 28, 1
   4              		.eabi_attribute 20, 1
   5              		.eabi_attribute 21, 1
   6              		.eabi_attribute 23, 3
   7              		.eabi_attribute 24, 1
   8              		.eabi_attribute 25, 1
   9              		.eabi_attribute 26, 1
  10              		.eabi_attribute 30, 2
  11              		.eabi_attribute 34, 1
  12              		.eabi_attribute 18, 4
  13              		.file	"fifo.c"
  14              		.text
  15              	.Ltext0:
  16              		.cfi_sections	.debug_frame
  17              		.section	.text.fifo_init,"ax",%progbits
  18              		.align	1
  19              		.p2align 2,,3
  20              		.global	fifo_init
  21              		.syntax unified
  22              		.thumb
  23              		.thumb_func
  24              		.fpu fpv4-sp-d16
  26              	fifo_init:
  27              	.LFB0:
  28              		.file 1 "Drivers/common/fifo.c"
   1:Drivers/common/fifo.c **** #include <stdbool.h>
   2:Drivers/common/fifo.c **** #include <stdlib.h>
   3:Drivers/common/fifo.c **** 
   4:Drivers/common/fifo.c **** #include "fifo.h"
   5:Drivers/common/fifo.c **** 
   6:Drivers/common/fifo.c **** 
   7:Drivers/common/fifo.c **** void fifo_init(fifo_t* fifo, memcpy_f memcpy, void* buffer, uint8_t buffer_size, uint8_t element_si
  29              		.loc 1 7 0
  30              		.cfi_startproc
  31              		@ args = 4, pretend = 0, frame = 0
  32              		@ frame_needed = 0, uses_anonymous_args = 0
  33              		@ link register save eliminated.
  34              	.LVL0:
  35 0000 10B4     		push	{r4}
  36              	.LCFI0:
  37              		.cfi_def_cfa_offset 4
  38              		.cfi_offset 4, -4
   8:Drivers/common/fifo.c **** 	if (fifo == NULL || buffer == NULL || memcpy == NULL) {
   9:Drivers/common/fifo.c **** 	}
  10:Drivers/common/fifo.c **** 
  11:Drivers/common/fifo.c **** 	fifo->tail_index = 0;
  12:Drivers/common/fifo.c **** 	fifo->head_index = 0;
  13:Drivers/common/fifo.c **** 	fifo->fill_size = 0;
  14:Drivers/common/fifo.c **** 
  15:Drivers/common/fifo.c **** 	fifo->memcpy = memcpy;
  39              		.loc 1 15 0
  40 0002 C160     		str	r1, [r0, #12]
   7:Drivers/common/fifo.c **** 	if (fifo == NULL || buffer == NULL || memcpy == NULL) {
  41              		.loc 1 7 0
  42 0004 9DF80440 		ldrb	r4, [sp, #4]	@ zero_extendqisi2
ARM GAS  /tmp/cc3bFnyL.s 			page 2


  16:Drivers/common/fifo.c **** 
  17:Drivers/common/fifo.c **** 	fifo->buffer_size = buffer_size;
  18:Drivers/common/fifo.c **** 	fifo->buffer = buffer;
  19:Drivers/common/fifo.c **** 	fifo->element_size = element_size;
  43              		.loc 1 19 0
  44 0008 0471     		strb	r4, [r0, #4]
  11:Drivers/common/fifo.c **** 	fifo->head_index = 0;
  45              		.loc 1 11 0
  46 000a 0021     		movs	r1, #0
  47              	.LVL1:
  17:Drivers/common/fifo.c **** 	fifo->buffer = buffer;
  48              		.loc 1 17 0
  49 000c C370     		strb	r3, [r0, #3]
  18:Drivers/common/fifo.c **** 	fifo->element_size = element_size;
  50              		.loc 1 18 0
  51 000e 8260     		str	r2, [r0, #8]
  11:Drivers/common/fifo.c **** 	fifo->head_index = 0;
  52              		.loc 1 11 0
  53 0010 0180     		strh	r1, [r0]	@ movhi
  12:Drivers/common/fifo.c **** 	fifo->fill_size = 0;
  54              		.loc 1 12 0
  55 0012 8170     		strb	r1, [r0, #2]
  20:Drivers/common/fifo.c **** }
  56              		.loc 1 20 0
  57 0014 5DF8044B 		ldr	r4, [sp], #4
  58              	.LCFI1:
  59              		.cfi_restore 4
  60              		.cfi_def_cfa_offset 0
  61              	.LVL2:
  62 0018 7047     		bx	lr
  63              		.cfi_endproc
  64              	.LFE0:
  66 001a 00BF     		.section	.text.fifo_availble,"ax",%progbits
  67              		.align	1
  68              		.p2align 2,,3
  69              		.global	fifo_availble
  70              		.syntax unified
  71              		.thumb
  72              		.thumb_func
  73              		.fpu fpv4-sp-d16
  75              	fifo_availble:
  76              	.LFB1:
  21:Drivers/common/fifo.c **** 
  22:Drivers/common/fifo.c **** uint8_t fifo_availble(fifo_t* fifo) {
  77              		.loc 1 22 0
  78              		.cfi_startproc
  79              		@ args = 0, pretend = 0, frame = 0
  80              		@ frame_needed = 0, uses_anonymous_args = 0
  81              		@ link register save eliminated.
  82              	.LVL3:
  23:Drivers/common/fifo.c **** 	return fifo->fill_size;
  24:Drivers/common/fifo.c **** }
  83              		.loc 1 24 0
  84 0000 8078     		ldrb	r0, [r0, #2]	@ zero_extendqisi2
  85              	.LVL4:
  86 0002 7047     		bx	lr
  87              		.cfi_endproc
ARM GAS  /tmp/cc3bFnyL.s 			page 3


  88              	.LFE1:
  90              		.section	.text.fifo_is_empty,"ax",%progbits
  91              		.align	1
  92              		.p2align 2,,3
  93              		.global	fifo_is_empty
  94              		.syntax unified
  95              		.thumb
  96              		.thumb_func
  97              		.fpu fpv4-sp-d16
  99              	fifo_is_empty:
 100              	.LFB2:
  25:Drivers/common/fifo.c **** 
  26:Drivers/common/fifo.c **** bool fifo_is_empty(fifo_t* fifo) {
 101              		.loc 1 26 0
 102              		.cfi_startproc
 103              		@ args = 0, pretend = 0, frame = 0
 104              		@ frame_needed = 0, uses_anonymous_args = 0
 105              		@ link register save eliminated.
 106              	.LVL5:
  27:Drivers/common/fifo.c **** 	return (fifo->fill_size == 0) ? true : false;
 107              		.loc 1 27 0
 108 0000 8078     		ldrb	r0, [r0, #2]	@ zero_extendqisi2
 109              	.LVL6:
  28:Drivers/common/fifo.c **** }
 110              		.loc 1 28 0
 111 0002 B0FA80F0 		clz	r0, r0
 112 0006 4009     		lsrs	r0, r0, #5
 113 0008 7047     		bx	lr
 114              		.cfi_endproc
 115              	.LFE2:
 117 000a 00BF     		.section	.text.fifo_put,"ax",%progbits
 118              		.align	1
 119              		.p2align 2,,3
 120              		.global	fifo_put
 121              		.syntax unified
 122              		.thumb
 123              		.thumb_func
 124              		.fpu fpv4-sp-d16
 126              	fifo_put:
 127              	.LFB3:
  29:Drivers/common/fifo.c **** 
  30:Drivers/common/fifo.c **** uint8_t fifo_put(fifo_t* fifo, void* data) {
 128              		.loc 1 30 0
 129              		.cfi_startproc
 130              		@ args = 0, pretend = 0, frame = 0
 131              		@ frame_needed = 0, uses_anonymous_args = 0
 132              	.LVL7:
 133 0000 70B5     		push	{r4, r5, r6, lr}
 134              	.LCFI2:
 135              		.cfi_def_cfa_offset 16
 136              		.cfi_offset 4, -16
 137              		.cfi_offset 5, -12
 138              		.cfi_offset 6, -8
 139              		.cfi_offset 14, -4
  31:Drivers/common/fifo.c **** 	uint8_t next_index;
  32:Drivers/common/fifo.c **** 
  33:Drivers/common/fifo.c **** 	if (fifo->fill_size == fifo->buffer_size) {
ARM GAS  /tmp/cc3bFnyL.s 			page 4


 140              		.loc 1 33 0
 141 0002 8478     		ldrb	r4, [r0, #2]	@ zero_extendqisi2
 142 0004 C578     		ldrb	r5, [r0, #3]	@ zero_extendqisi2
 143 0006 AC42     		cmp	r4, r5
 144 0008 11D0     		beq	.L8
  34:Drivers/common/fifo.c **** 		return RET_FIFO_NG;
  35:Drivers/common/fifo.c **** 	}
  36:Drivers/common/fifo.c **** 
  37:Drivers/common/fifo.c **** 	if (data != NULL) {
 145              		.loc 1 37 0
 146 000a 91B1     		cbz	r1, .L9
  38:Drivers/common/fifo.c **** 		fifo->fill_size++;
  39:Drivers/common/fifo.c **** 
  40:Drivers/common/fifo.c **** 		next_index = (fifo->tail_index++) % fifo->buffer_size;
 147              		.loc 1 40 0
 148 000c 0678     		ldrb	r6, [r0]	@ zero_extendqisi2
 149 000e B6FBF5F2 		udiv	r2, r6, r5
 150 0012 0346     		mov	r3, r0
 151 0014 05FB1262 		mls	r2, r5, r2, r6
  41:Drivers/common/fifo.c **** 		fifo->tail_index = next_index;
  42:Drivers/common/fifo.c **** 
  43:Drivers/common/fifo.c **** 		fifo->memcpy((uint8_t*)&(fifo->buffer[fifo->tail_index]), (uint8_t*)data, fifo->element_size);
 152              		.loc 1 43 0
 153 0018 8068     		ldr	r0, [r0, #8]
 154              	.LVL8:
  40:Drivers/common/fifo.c **** 		fifo->tail_index = next_index;
 155              		.loc 1 40 0
 156 001a D2B2     		uxtb	r2, r2
 157              	.LVL9:
  38:Drivers/common/fifo.c **** 		fifo->fill_size++;
 158              		.loc 1 38 0
 159 001c 0134     		adds	r4, r4, #1
 160 001e 9C70     		strb	r4, [r3, #2]
  41:Drivers/common/fifo.c **** 		fifo->tail_index = next_index;
 161              		.loc 1 41 0
 162 0020 1A70     		strb	r2, [r3]
 163              		.loc 1 43 0
 164 0022 1044     		add	r0, r0, r2
 165 0024 DC68     		ldr	r4, [r3, #12]
 166 0026 1A79     		ldrb	r2, [r3, #4]	@ zero_extendqisi2
 167              	.LVL10:
 168 0028 A047     		blx	r4
 169              	.LVL11:
  44:Drivers/common/fifo.c **** 	}
  45:Drivers/common/fifo.c **** 	else {
  46:Drivers/common/fifo.c **** 		return RET_FIFO_NG;
  47:Drivers/common/fifo.c **** 	}
  48:Drivers/common/fifo.c **** 
  49:Drivers/common/fifo.c **** 	return RET_FIFO_OK;
 170              		.loc 1 49 0
 171 002a 0120     		movs	r0, #1
  50:Drivers/common/fifo.c **** }
 172              		.loc 1 50 0
 173 002c 70BD     		pop	{r4, r5, r6, pc}
 174              	.LVL12:
 175              	.L8:
  34:Drivers/common/fifo.c **** 	}
ARM GAS  /tmp/cc3bFnyL.s 			page 5


 176              		.loc 1 34 0
 177 002e 0020     		movs	r0, #0
 178              	.LVL13:
 179              		.loc 1 50 0
 180 0030 70BD     		pop	{r4, r5, r6, pc}
 181              	.LVL14:
 182              	.L9:
  34:Drivers/common/fifo.c **** 	}
 183              		.loc 1 34 0
 184 0032 0846     		mov	r0, r1
 185              	.LVL15:
 186              		.loc 1 50 0
 187 0034 70BD     		pop	{r4, r5, r6, pc}
 188              		.cfi_endproc
 189              	.LFE3:
 191 0036 00BF     		.section	.text.fifo_get,"ax",%progbits
 192              		.align	1
 193              		.p2align 2,,3
 194              		.global	fifo_get
 195              		.syntax unified
 196              		.thumb
 197              		.thumb_func
 198              		.fpu fpv4-sp-d16
 200              	fifo_get:
 201              	.LFB4:
  51:Drivers/common/fifo.c **** 
  52:Drivers/common/fifo.c **** uint8_t fifo_get(fifo_t* fifo, void* data) {
 202              		.loc 1 52 0
 203              		.cfi_startproc
 204              		@ args = 0, pretend = 0, frame = 0
 205              		@ frame_needed = 0, uses_anonymous_args = 0
 206              	.LVL16:
 207              	.LBB4:
 208              	.LBB5:
  27:Drivers/common/fifo.c **** }
 209              		.loc 1 27 0
 210 0000 8378     		ldrb	r3, [r0, #2]	@ zero_extendqisi2
 211              	.LVL17:
 212              	.LBE5:
 213              	.LBE4:
  53:Drivers/common/fifo.c **** 
  54:Drivers/common/fifo.c **** 	uint8_t head_next;
  55:Drivers/common/fifo.c **** 
  56:Drivers/common/fifo.c **** 	if (fifo_is_empty(fifo)) {
 214              		.loc 1 56 0
 215 0002 BBB1     		cbz	r3, .L18
  57:Drivers/common/fifo.c **** 		return RET_FIFO_NG;
  58:Drivers/common/fifo.c **** 	}
  59:Drivers/common/fifo.c **** 
  60:Drivers/common/fifo.c **** 	if (data != NULL) {
 216              		.loc 1 60 0
 217 0004 A9B1     		cbz	r1, .L13
  52:Drivers/common/fifo.c **** 
 218              		.loc 1 52 0
 219 0006 70B5     		push	{r4, r5, r6, lr}
 220              	.LCFI3:
 221              		.cfi_def_cfa_offset 16
ARM GAS  /tmp/cc3bFnyL.s 			page 6


 222              		.cfi_offset 4, -16
 223              		.cfi_offset 5, -12
 224              		.cfi_offset 6, -8
 225              		.cfi_offset 14, -4
  61:Drivers/common/fifo.c **** 		fifo->memcpy((uint8_t*)data, (uint8_t*)&(fifo->buffer[fifo->head_index]), fifo->element_size);
 226              		.loc 1 61 0
 227 0008 D0E90263 		ldrd	r6, r3, [r0, #8]
 228 000c 4578     		ldrb	r5, [r0, #1]	@ zero_extendqisi2
 229 000e 0279     		ldrb	r2, [r0, #4]	@ zero_extendqisi2
 230 0010 0446     		mov	r4, r0
 231 0012 0846     		mov	r0, r1
 232              	.LVL18:
 233 0014 7119     		adds	r1, r6, r5
 234              	.LVL19:
 235 0016 9847     		blx	r3
 236              	.LVL20:
  62:Drivers/common/fifo.c **** 
  63:Drivers/common/fifo.c **** 		head_next = fifo->head_index++ % fifo->buffer_size;
 237              		.loc 1 63 0
 238 0018 6078     		ldrb	r0, [r4, #1]	@ zero_extendqisi2
 239 001a E178     		ldrb	r1, [r4, #3]	@ zero_extendqisi2
  64:Drivers/common/fifo.c **** 		fifo->head_index = head_next;
  65:Drivers/common/fifo.c **** 		fifo->fill_size--;
 240              		.loc 1 65 0
 241 001c A378     		ldrb	r3, [r4, #2]	@ zero_extendqisi2
  63:Drivers/common/fifo.c **** 		fifo->head_index = head_next;
 242              		.loc 1 63 0
 243 001e B0FBF1F2 		udiv	r2, r0, r1
 244              		.loc 1 65 0
 245 0022 013B     		subs	r3, r3, #1
  63:Drivers/common/fifo.c **** 		fifo->head_index = head_next;
 246              		.loc 1 63 0
 247 0024 01FB1202 		mls	r2, r1, r2, r0
 248              		.loc 1 65 0
 249 0028 A370     		strb	r3, [r4, #2]
  64:Drivers/common/fifo.c **** 		fifo->head_index = head_next;
 250              		.loc 1 64 0
 251 002a 6270     		strb	r2, [r4, #1]
 252              	.LVL21:
  66:Drivers/common/fifo.c **** 	}
  67:Drivers/common/fifo.c **** 	else {
  68:Drivers/common/fifo.c **** 		return RET_FIFO_NG;
  69:Drivers/common/fifo.c **** 	}
  70:Drivers/common/fifo.c **** 
  71:Drivers/common/fifo.c **** 	return RET_FIFO_OK;
 253              		.loc 1 71 0
 254 002c 0123     		movs	r3, #1
  72:Drivers/common/fifo.c **** }
 255              		.loc 1 72 0
 256 002e 1846     		mov	r0, r3
 257              	.LVL22:
 258 0030 70BD     		pop	{r4, r5, r6, pc}
 259              	.LVL23:
 260              	.L13:
 261              	.LCFI4:
 262              		.cfi_def_cfa_offset 0
 263              		.cfi_restore 4
ARM GAS  /tmp/cc3bFnyL.s 			page 7


 264              		.cfi_restore 5
 265              		.cfi_restore 6
 266              		.cfi_restore 14
  57:Drivers/common/fifo.c **** 	}
 267              		.loc 1 57 0
 268 0032 0B46     		mov	r3, r1
 269              	.L18:
 270              		.loc 1 72 0
 271 0034 1846     		mov	r0, r3
 272              	.LVL24:
 273 0036 7047     		bx	lr
 274              		.cfi_endproc
 275              	.LFE4:
 277              		.text
 278              	.Letext0:
 279              		.file 2 "/home/fanning/workspace/tools/gcc-arm-none-eabi-7-2017-q4-major/lib/gcc/arm-none-eabi/7.2
 280              		.file 3 "/home/fanning/workspace/tools/gcc-arm-none-eabi-7-2017-q4-major/arm-none-eabi/include/mac
 281              		.file 4 "/home/fanning/workspace/tools/gcc-arm-none-eabi-7-2017-q4-major/arm-none-eabi/include/sys
 282              		.file 5 "/home/fanning/workspace/tools/gcc-arm-none-eabi-7-2017-q4-major/arm-none-eabi/include/sys
 283              		.file 6 "/home/fanning/workspace/tools/gcc-arm-none-eabi-7-2017-q4-major/arm-none-eabi/include/sys
 284              		.file 7 "/home/fanning/workspace/tools/gcc-arm-none-eabi-7-2017-q4-major/arm-none-eabi/include/std
 285              		.file 8 "/home/fanning/workspace/tools/gcc-arm-none-eabi-7-2017-q4-major/arm-none-eabi/include/sys
 286              		.file 9 "Drivers/common/fifo.h"
ARM GAS  /tmp/cc3bFnyL.s 			page 8


DEFINED SYMBOLS
                            *ABS*:0000000000000000 fifo.c
     /tmp/cc3bFnyL.s:18     .text.fifo_init:0000000000000000 $t
     /tmp/cc3bFnyL.s:26     .text.fifo_init:0000000000000000 fifo_init
     /tmp/cc3bFnyL.s:67     .text.fifo_availble:0000000000000000 $t
     /tmp/cc3bFnyL.s:75     .text.fifo_availble:0000000000000000 fifo_availble
     /tmp/cc3bFnyL.s:91     .text.fifo_is_empty:0000000000000000 $t
     /tmp/cc3bFnyL.s:99     .text.fifo_is_empty:0000000000000000 fifo_is_empty
     /tmp/cc3bFnyL.s:118    .text.fifo_put:0000000000000000 $t
     /tmp/cc3bFnyL.s:126    .text.fifo_put:0000000000000000 fifo_put
     /tmp/cc3bFnyL.s:192    .text.fifo_get:0000000000000000 $t
     /tmp/cc3bFnyL.s:200    .text.fifo_get:0000000000000000 fifo_get

NO UNDEFINED SYMBOLS
