ARM GAS  /tmp/ccvYaQIL.s 			page 1


   1              		.cpu cortex-m4
   2              		.eabi_attribute 27, 1
   3              		.eabi_attribute 28, 1
   4              		.eabi_attribute 20, 1
   5              		.eabi_attribute 21, 1
   6              		.eabi_attribute 23, 3
   7              		.eabi_attribute 24, 1
   8              		.eabi_attribute 25, 1
   9              		.eabi_attribute 26, 1
  10              		.eabi_attribute 30, 2
  11              		.eabi_attribute 34, 1
  12              		.eabi_attribute 18, 4
  13              		.file	"log_queue.c"
  14              		.text
  15              	.Ltext0:
  16              		.cfi_sections	.debug_frame
  17              		.section	.text.log_queue_init,"ax",%progbits
  18              		.align	1
  19              		.p2align 2,,3
  20              		.global	log_queue_init
  21              		.syntax unified
  22              		.thumb
  23              		.thumb_func
  24              		.fpu fpv4-sp-d16
  26              	log_queue_init:
  27              	.LFB0:
  28              		.file 1 "Drivers/common/log_queue.c"
   1:Drivers/common/log_queue.c **** /**
   2:Drivers/common/log_queue.c ****  ******************************************************************************
   3:Drivers/common/log_queue.c ****  * @Author: ThanNT
   4:Drivers/common/log_queue.c ****  * @Date:   17/11/2016
   5:Drivers/common/log_queue.c ****  ******************************************************************************
   6:Drivers/common/log_queue.c **** **/
   7:Drivers/common/log_queue.c **** 
   8:Drivers/common/log_queue.c **** #include "log_queue.h"
   9:Drivers/common/log_queue.c **** 
  10:Drivers/common/log_queue.c **** uint8_t log_queue_init(log_queue_t* q, uint32_t b, uint32_t q_l, uint32_t e_l, q_ctrl f_w, q_ctrl f
  29              		.loc 1 10 0
  30              		.cfi_startproc
  31              		@ args = 8, pretend = 0, frame = 0
  32              		@ frame_needed = 0, uses_anonymous_args = 0
  33              		@ link register save eliminated.
  34              	.LVL0:
  35 0000 30B4     		push	{r4, r5}
  36              	.LCFI0:
  37              		.cfi_def_cfa_offset 8
  38              		.cfi_offset 4, -8
  39              		.cfi_offset 5, -4
  40              		.loc 1 10 0
  41 0002 029D     		ldr	r5, [sp, #8]
  11:Drivers/common/log_queue.c **** 	q->base		= b;
  42              		.loc 1 11 0
  43 0004 0160     		str	r1, [r0]
  12:Drivers/common/log_queue.c **** 	q->head		= b;
  13:Drivers/common/log_queue.c **** 	q->tail		= b;
  14:Drivers/common/log_queue.c **** 
  15:Drivers/common/log_queue.c **** 	q->q_len	= q_l;
ARM GAS  /tmp/ccvYaQIL.s 			page 2


  16:Drivers/common/log_queue.c **** 	q->e_len	= e_l;
  17:Drivers/common/log_queue.c **** 
  18:Drivers/common/log_queue.c **** 	q->counter	= 0;
  19:Drivers/common/log_queue.c **** 	q->end		= b + ((q_l - 1) * e_l);
  44              		.loc 1 19 0
  45 0006 541E     		subs	r4, r2, #1
  46 0008 03FB0414 		mla	r4, r3, r4, r1
  13:Drivers/common/log_queue.c **** 
  47              		.loc 1 13 0
  48 000c C0E90111 		strd	r1, r1, [r0, #4]
  18:Drivers/common/log_queue.c **** 	q->end		= b + ((q_l - 1) * e_l);
  49              		.loc 1 18 0
  50 0010 0021     		movs	r1, #0
  51              	.LVL1:
  16:Drivers/common/log_queue.c **** 
  52              		.loc 1 16 0
  53 0012 0361     		str	r3, [r0, #16]
  15:Drivers/common/log_queue.c **** 	q->e_len	= e_l;
  54              		.loc 1 15 0
  55 0014 C260     		str	r2, [r0, #12]
  56              		.loc 1 19 0
  57 0016 0462     		str	r4, [r0, #32]
  18:Drivers/common/log_queue.c **** 	q->end		= b + ((q_l - 1) * e_l);
  58              		.loc 1 18 0
  59 0018 C161     		str	r1, [r0, #28]
  10:Drivers/common/log_queue.c **** 	q->base		= b;
  60              		.loc 1 10 0
  61 001a 039B     		ldr	r3, [sp, #12]
  62              	.LVL2:
  20:Drivers/common/log_queue.c **** 
  21:Drivers/common/log_queue.c **** 	if (f_w) {
  63              		.loc 1 21 0
  64 001c 2DB1     		cbz	r5, .L4
  22:Drivers/common/log_queue.c **** 		q->write = f_w;
  65              		.loc 1 22 0
  66 001e 8561     		str	r5, [r0, #24]
  23:Drivers/common/log_queue.c **** 	}
  24:Drivers/common/log_queue.c **** 	else {
  25:Drivers/common/log_queue.c **** 		return LOG_QUEUE_RET_NG;
  26:Drivers/common/log_queue.c **** 	}
  27:Drivers/common/log_queue.c **** 
  28:Drivers/common/log_queue.c **** 	if (f_r) {
  67              		.loc 1 28 0
  68 0020 1BB1     		cbz	r3, .L4
  29:Drivers/common/log_queue.c **** 		q->read = f_r;
  69              		.loc 1 29 0
  70 0022 4361     		str	r3, [r0, #20]
  30:Drivers/common/log_queue.c **** 	}
  31:Drivers/common/log_queue.c **** 	else {
  32:Drivers/common/log_queue.c **** 		return LOG_QUEUE_RET_NG;
  33:Drivers/common/log_queue.c **** 	}
  34:Drivers/common/log_queue.c **** 
  35:Drivers/common/log_queue.c **** 	return LOG_QUEUE_RET_OK;
  36:Drivers/common/log_queue.c **** }
  71              		.loc 1 36 0
  72 0024 30BC     		pop	{r4, r5}
  73              	.LCFI1:
ARM GAS  /tmp/ccvYaQIL.s 			page 3


  74              		.cfi_remember_state
  75              		.cfi_restore 5
  76              		.cfi_restore 4
  77              		.cfi_def_cfa_offset 0
  78              	.LVL3:
  35:Drivers/common/log_queue.c **** }
  79              		.loc 1 35 0
  80 0026 0846     		mov	r0, r1
  81              	.LVL4:
  82              		.loc 1 36 0
  83 0028 7047     		bx	lr
  84              	.LVL5:
  85              	.L4:
  86              	.LCFI2:
  87              		.cfi_restore_state
  25:Drivers/common/log_queue.c **** 	}
  88              		.loc 1 25 0
  89 002a 0120     		movs	r0, #1
  90              	.LVL6:
  91              		.loc 1 36 0
  92 002c 30BC     		pop	{r4, r5}
  93              	.LCFI3:
  94              		.cfi_restore 5
  95              		.cfi_restore 4
  96              		.cfi_def_cfa_offset 0
  97              	.LVL7:
  98 002e 7047     		bx	lr
  99              		.cfi_endproc
 100              	.LFE0:
 102              		.section	.text.log_queue_len,"ax",%progbits
 103              		.align	1
 104              		.p2align 2,,3
 105              		.global	log_queue_len
 106              		.syntax unified
 107              		.thumb
 108              		.thumb_func
 109              		.fpu fpv4-sp-d16
 111              	log_queue_len:
 112              	.LFB1:
  37:Drivers/common/log_queue.c **** 
  38:Drivers/common/log_queue.c **** uint32_t log_queue_len(log_queue_t* q) {
 113              		.loc 1 38 0
 114              		.cfi_startproc
 115              		@ args = 0, pretend = 0, frame = 0
 116              		@ frame_needed = 0, uses_anonymous_args = 0
 117              		@ link register save eliminated.
 118              	.LVL8:
  39:Drivers/common/log_queue.c **** 	return q->counter;
  40:Drivers/common/log_queue.c **** }
 119              		.loc 1 40 0
 120 0000 C069     		ldr	r0, [r0, #28]
 121              	.LVL9:
 122 0002 7047     		bx	lr
 123              		.cfi_endproc
 124              	.LFE1:
 126              		.section	.text.log_queue_put,"ax",%progbits
 127              		.align	1
ARM GAS  /tmp/ccvYaQIL.s 			page 4


 128              		.p2align 2,,3
 129              		.global	log_queue_put
 130              		.syntax unified
 131              		.thumb
 132              		.thumb_func
 133              		.fpu fpv4-sp-d16
 135              	log_queue_put:
 136              	.LFB2:
  41:Drivers/common/log_queue.c **** 
  42:Drivers/common/log_queue.c **** uint8_t log_queue_put(log_queue_t* q, void* d) {
 137              		.loc 1 42 0
 138              		.cfi_startproc
 139              		@ args = 0, pretend = 0, frame = 0
 140              		@ frame_needed = 0, uses_anonymous_args = 0
 141              	.LVL10:
 142 0000 38B5     		push	{r3, r4, r5, lr}
 143              	.LCFI4:
 144              		.cfi_def_cfa_offset 16
 145              		.cfi_offset 3, -16
 146              		.cfi_offset 4, -12
 147              		.cfi_offset 5, -8
 148              		.cfi_offset 14, -4
  43:Drivers/common/log_queue.c **** 
  44:Drivers/common/log_queue.c **** 	/* check invalib address */
  45:Drivers/common/log_queue.c **** 	if ((q->head < q->base) || (q->head > q->end)) {
 149              		.loc 1 45 0
 150 0002 D0E90023 		ldrd	r2, r3, [r0]
 151 0006 9342     		cmp	r3, r2
 152 0008 1CD3     		bcc	.L22
 153              		.loc 1 45 0 is_stmt 0 discriminator 1
 154 000a 026A     		ldr	r2, [r0, #32]
 155 000c 9342     		cmp	r3, r2
 156 000e 19D8     		bhi	.L22
  46:Drivers/common/log_queue.c **** 		return LOG_QUEUE_RET_NG;
  47:Drivers/common/log_queue.c **** 	}
  48:Drivers/common/log_queue.c **** 
  49:Drivers/common/log_queue.c **** 	/* write data to queue */
  50:Drivers/common/log_queue.c **** 	if (q->write) {
 157              		.loc 1 50 0 is_stmt 1
 158 0010 8569     		ldr	r5, [r0, #24]
 159 0012 0446     		mov	r4, r0
 160 0014 25B1     		cbz	r5, .L13
  51:Drivers/common/log_queue.c **** 		q->write(q->head, (uint8_t*)d, q->e_len);
 161              		.loc 1 51 0
 162 0016 1846     		mov	r0, r3
 163              	.LVL11:
 164 0018 2269     		ldr	r2, [r4, #16]
 165 001a A847     		blx	r5
 166              	.LVL12:
 167 001c 6368     		ldr	r3, [r4, #4]
 168 001e 226A     		ldr	r2, [r4, #32]
 169              	.L13:
  52:Drivers/common/log_queue.c **** 	}
  53:Drivers/common/log_queue.c **** 
  54:Drivers/common/log_queue.c **** 	/* overwrite tail */
  55:Drivers/common/log_queue.c **** 	if (q->tail == q->head && q->counter == q->q_len) {
 170              		.loc 1 55 0
ARM GAS  /tmp/ccvYaQIL.s 			page 5


 171 0020 A068     		ldr	r0, [r4, #8]
 172 0022 E169     		ldr	r1, [r4, #28]
 173 0024 E568     		ldr	r5, [r4, #12]
 174 0026 9842     		cmp	r0, r3
 175 0028 0ED0     		beq	.L27
 176              	.L14:
  56:Drivers/common/log_queue.c **** 		if (q->tail == q->end) {
  57:Drivers/common/log_queue.c **** 			q->tail = q->base;
  58:Drivers/common/log_queue.c **** 		}
  59:Drivers/common/log_queue.c **** 		else {
  60:Drivers/common/log_queue.c **** 			q->tail = q->tail + q->e_len;
  61:Drivers/common/log_queue.c **** 		}
  62:Drivers/common/log_queue.c **** 	}
  63:Drivers/common/log_queue.c **** 
  64:Drivers/common/log_queue.c **** 	/* determine next address of head */
  65:Drivers/common/log_queue.c **** 	if (q->head == q->end) {
 177              		.loc 1 65 0
 178 002a 9342     		cmp	r3, r2
 179 002c 16BF     		itet	ne
 180 002e 2069     		ldrne	r0, [r4, #16]
 181 0030 2368     		ldreq	r3, [r4]
 182 0032 1B18     		addne	r3, r3, r0
 183              	.L19:
  66:Drivers/common/log_queue.c **** 		q->head = q->base;
  67:Drivers/common/log_queue.c **** 	}
  68:Drivers/common/log_queue.c **** 	else {
  69:Drivers/common/log_queue.c **** 		q->head = q->head + q->e_len;
  70:Drivers/common/log_queue.c **** 	}
  71:Drivers/common/log_queue.c **** 
  72:Drivers/common/log_queue.c **** 	/* increase counter */
  73:Drivers/common/log_queue.c **** 	q->counter++;
 184              		.loc 1 73 0
 185 0034 0131     		adds	r1, r1, #1
  74:Drivers/common/log_queue.c **** 	if (q->counter > q->q_len) {
 186              		.loc 1 74 0
 187 0036 A942     		cmp	r1, r5
 188 0038 6360     		str	r3, [r4, #4]
  73:Drivers/common/log_queue.c **** 	if (q->counter > q->q_len) {
 189              		.loc 1 73 0
 190 003a 94BF     		ite	ls
 191 003c E161     		strls	r1, [r4, #28]
  75:Drivers/common/log_queue.c **** 		q->counter = q->q_len;
 192              		.loc 1 75 0
 193 003e E561     		strhi	r5, [r4, #28]
  76:Drivers/common/log_queue.c **** 	}
  77:Drivers/common/log_queue.c **** 
  78:Drivers/common/log_queue.c **** 	return LOG_QUEUE_RET_OK;
 194              		.loc 1 78 0
 195 0040 0020     		movs	r0, #0
  79:Drivers/common/log_queue.c **** }
 196              		.loc 1 79 0
 197 0042 38BD     		pop	{r3, r4, r5, pc}
 198              	.LVL13:
 199              	.L22:
  46:Drivers/common/log_queue.c **** 	}
 200              		.loc 1 46 0
 201 0044 0120     		movs	r0, #1
ARM GAS  /tmp/ccvYaQIL.s 			page 6


 202              	.LVL14:
 203              		.loc 1 79 0
 204 0046 38BD     		pop	{r3, r4, r5, pc}
 205              	.LVL15:
 206              	.L27:
  55:Drivers/common/log_queue.c **** 		if (q->tail == q->end) {
 207              		.loc 1 55 0 discriminator 1
 208 0048 8D42     		cmp	r5, r1
 209 004a EED1     		bne	.L14
  56:Drivers/common/log_queue.c **** 			q->tail = q->base;
 210              		.loc 1 56 0
 211 004c 9342     		cmp	r3, r2
  60:Drivers/common/log_queue.c **** 		}
 212              		.loc 1 60 0
 213 004e 16BF     		itet	ne
 214 0050 2069     		ldrne	r0, [r4, #16]
  57:Drivers/common/log_queue.c **** 		}
 215              		.loc 1 57 0
 216 0052 2368     		ldreq	r3, [r4]
  60:Drivers/common/log_queue.c **** 		}
 217              		.loc 1 60 0
 218 0054 1B18     		addne	r3, r3, r0
 219 0056 A360     		str	r3, [r4, #8]
 220 0058 ECE7     		b	.L19
 221              		.cfi_endproc
 222              	.LFE2:
 224 005a 00BF     		.section	.text.log_queue_get,"ax",%progbits
 225              		.align	1
 226              		.p2align 2,,3
 227              		.global	log_queue_get
 228              		.syntax unified
 229              		.thumb
 230              		.thumb_func
 231              		.fpu fpv4-sp-d16
 233              	log_queue_get:
 234              	.LFB3:
  80:Drivers/common/log_queue.c **** 
  81:Drivers/common/log_queue.c **** uint8_t log_queue_get(log_queue_t* q, void* d) {
 235              		.loc 1 81 0
 236              		.cfi_startproc
 237              		@ args = 0, pretend = 0, frame = 0
 238              		@ frame_needed = 0, uses_anonymous_args = 0
 239              	.LVL16:
 240 0000 38B5     		push	{r3, r4, r5, lr}
 241              	.LCFI5:
 242              		.cfi_def_cfa_offset 16
 243              		.cfi_offset 3, -16
 244              		.cfi_offset 4, -12
 245              		.cfi_offset 5, -8
 246              		.cfi_offset 14, -4
  82:Drivers/common/log_queue.c **** 
  83:Drivers/common/log_queue.c **** 	/* check data exist */
  84:Drivers/common/log_queue.c **** 	if (!q->counter) {
 247              		.loc 1 84 0
 248 0002 C369     		ldr	r3, [r0, #28]
 249 0004 93B1     		cbz	r3, .L33
  85:Drivers/common/log_queue.c **** 		return LOG_QUEUE_RET_NG;
ARM GAS  /tmp/ccvYaQIL.s 			page 7


  86:Drivers/common/log_queue.c **** 	}
  87:Drivers/common/log_queue.c **** 
  88:Drivers/common/log_queue.c **** 	/* read data from queue */
  89:Drivers/common/log_queue.c **** 	if (q->read) {
 250              		.loc 1 89 0
 251 0006 4569     		ldr	r5, [r0, #20]
 252 0008 0446     		mov	r4, r0
 253 000a 8068     		ldr	r0, [r0, #8]
 254              	.LVL17:
 255 000c 1DB1     		cbz	r5, .L30
  90:Drivers/common/log_queue.c **** 		q->read(q->tail, (uint8_t*)d, q->e_len);
 256              		.loc 1 90 0
 257 000e 2269     		ldr	r2, [r4, #16]
 258 0010 A847     		blx	r5
 259              	.LVL18:
 260 0012 A068     		ldr	r0, [r4, #8]
 261 0014 E369     		ldr	r3, [r4, #28]
 262              	.L30:
  91:Drivers/common/log_queue.c **** 	}
  92:Drivers/common/log_queue.c **** 	if (q->tail == q->end) {
 263              		.loc 1 92 0
 264 0016 226A     		ldr	r2, [r4, #32]
 265 0018 8242     		cmp	r2, r0
  93:Drivers/common/log_queue.c **** 		q->tail = q->base;
  94:Drivers/common/log_queue.c **** 	}
  95:Drivers/common/log_queue.c **** 	else {
  96:Drivers/common/log_queue.c **** 		q->tail = q->tail + q->e_len;
 266              		.loc 1 96 0
 267 001a 16BF     		itet	ne
 268 001c 2269     		ldrne	r2, [r4, #16]
  93:Drivers/common/log_queue.c **** 		q->tail = q->base;
 269              		.loc 1 93 0
 270 001e 2068     		ldreq	r0, [r4]
 271              		.loc 1 96 0
 272 0020 8018     		addne	r0, r0, r2
  97:Drivers/common/log_queue.c **** 	}
  98:Drivers/common/log_queue.c **** 
  99:Drivers/common/log_queue.c **** 	/* descrease counter */
 100:Drivers/common/log_queue.c **** 	q->counter--;
 273              		.loc 1 100 0
 274 0022 013B     		subs	r3, r3, #1
 275 0024 A060     		str	r0, [r4, #8]
 276 0026 E361     		str	r3, [r4, #28]
 101:Drivers/common/log_queue.c **** 
 102:Drivers/common/log_queue.c **** 	return LOG_QUEUE_RET_OK;
 277              		.loc 1 102 0
 278 0028 0020     		movs	r0, #0
 103:Drivers/common/log_queue.c **** }
 279              		.loc 1 103 0
 280 002a 38BD     		pop	{r3, r4, r5, pc}
 281              	.LVL19:
 282              	.L33:
  85:Drivers/common/log_queue.c **** 	}
 283              		.loc 1 85 0
 284 002c 0120     		movs	r0, #1
 285              	.LVL20:
 286              		.loc 1 103 0
ARM GAS  /tmp/ccvYaQIL.s 			page 8


 287 002e 38BD     		pop	{r3, r4, r5, pc}
 288              		.cfi_endproc
 289              	.LFE3:
 291              		.text
 292              	.Letext0:
 293              		.file 2 "/home/fanning/workspace/tools/gcc-arm-none-eabi-7-2017-q4-major/arm-none-eabi/include/mac
 294              		.file 3 "/home/fanning/workspace/tools/gcc-arm-none-eabi-7-2017-q4-major/arm-none-eabi/include/sys
 295              		.file 4 "Drivers/common/log_queue.h"
ARM GAS  /tmp/ccvYaQIL.s 			page 9


DEFINED SYMBOLS
                            *ABS*:0000000000000000 log_queue.c
     /tmp/ccvYaQIL.s:18     .text.log_queue_init:0000000000000000 $t
     /tmp/ccvYaQIL.s:26     .text.log_queue_init:0000000000000000 log_queue_init
     /tmp/ccvYaQIL.s:103    .text.log_queue_len:0000000000000000 $t
     /tmp/ccvYaQIL.s:111    .text.log_queue_len:0000000000000000 log_queue_len
     /tmp/ccvYaQIL.s:127    .text.log_queue_put:0000000000000000 $t
     /tmp/ccvYaQIL.s:135    .text.log_queue_put:0000000000000000 log_queue_put
     /tmp/ccvYaQIL.s:225    .text.log_queue_get:0000000000000000 $t
     /tmp/ccvYaQIL.s:233    .text.log_queue_get:0000000000000000 log_queue_get

NO UNDEFINED SYMBOLS
