:020000040800F2
:1000000000000A20295E0008750800087908000829
:100010007D0800088108000885080008000000002D
:100020000000000000000000000000008908000837
:100030008D080008000000009108000895080008DD
:10004000795E0008795E0008795E0008795E000834
:10005000795E0008795E0008795E0008795E000824
:10006000795E0008795E0008795E0008795E000814
:10007000795E0008795E0008795E0008795E000804
:10008000795E0008795E0008795E0008795E0008F4
:10009000795E0008795E0008795E0008795E0008E4
:1000A000795E0008795E0008795E0008795E0008D4
:1000B000795E0008795E0008795E0008795E0008C4
:1000C000795E0008795E0008795E0008795E0008B4
:1000D000795E0008795E000899080008A508000804
:1000E000795E0008795E0008795E0008795E000894
:1000F000795E0008795E0008795E00080000000063
:10010000795E0008795E0008795E0008795E000873
:10011000795E0008795E0008795E0008B108000881
:10012000795E0008795E0008795E0008795E000853
:10013000795E0008795E0008795E0008795E000843
:10014000795E0008795E0008795E0008CD08000835
:10015000795E0008795E0008795E0008795E000823
:10016000795E0008795E0008795E0008795E000813
:10017000795E0008795E00080000000000000000C1
:10018000795E0008795E0008795E0008795E0008F3
:10019000795E0008795E00080000000000000000A1
:1001A0000000000000000000795E0008795E000891
:1001B000795E0008795E0008795E000800000000A2
:1001C00010B5054C237833B9044B13B10448AFF391
:1001D00000800123237010BD780100200000000082
:1001E000D45E000808B5034B1BB103490348AFF3C5
:1001F000008008BD000000007C010020D45E0008E3
:1002000053B94AB9002908BF00281CBF4FF0FF317D
:100210004FF0FF3000F072B9ADF1080C6DE904CE7B
:1002200000F006F8DDF804E0DDE9022304B07047D1
:100230002DE9F047089E04468846002B4BD18A42A0
:10024000154667D9B2FA82F24AB1C2F1200701FA23
:1002500002F320FA07F7954047EA030894404FEA73
:10026000154E230CB8FBFEF71FFA85FC0EFB178812
:1002700043EA084307FB0CF1994209D9EB1807F14F
:10028000FF3080F01B81994240F21881023F2B44DD
:100290005B1AA4B2B3FBFEF00EFB103344EA034436
:1002A00000FB0CFCA44509D92C1900F1FF3380F0A8
:1002B0000781A44540F2048102382C4440EA0740FB
:1002C000A4EB0C0400271EB1D4400023C6E9004370
:1002D0003946BDE8F0878B4209D9002E00F0EB804B
:1002E0000027C6E9000138463946BDE8F087B3FA71
:1002F00083F7002F47D18B4202D3824200F2FA806B
:10030000841A61EB030301209846002EE0D0C6E971
:100310000048DDE702B9FFDEB2FA82F2002A40F0BF
:100320008F80491B4FEA154E1FFA85F80127B1FB54
:10033000FEFC230C0EFB1C1143EA014308FB0CF1ED
:10034000994207D9EB180CF1FF3002D2994200F222
:10035000CD808446591AA3B2B1FBFEF00EFB1014F7
:1003600043EA044408FB00F8A04507D92C1900F122
:10037000FF3302D2A04500F2B6801846A4EB080471
:1003800040EA0C409FE7C7F1200CBB4022FA0CFE6C
:100390004EEA030E01FA07F420FA0CF521FA0CF3E9
:1003A0004FEA1E482543B3FBF8F92C0C08FB193320
:1003B0001FFA8EFA44EA034309FB0AF49C4202FA4C
:1003C00007F200FA07F10BD91EEB030309F1FF3026
:1003D00080F087809C4240F28480A9F10209734436
:1003E0001B1BADB2B3FBF8F008FB103345EA034426
:1003F00000FB0AFAA24508D91EEB040400F1FF3302
:100400006BD2A24569D90238744440EA0940A0FB86
:100410000289A4EB0A044C45C2464B4654D351D042
:10042000002E69D0B1EB0A0564EB030404FA0CFC5E
:10043000FD40FC404CEA0505C6E90054002747E7AB
:10044000C2F1200320FA03F7954001FA02F021FAE5
:1004500003F34FEA154E3843010CB3FBFEF71FFAC6
:1004600085F80EFB173341EA034107FB08F38B4283
:1004700004FA02F407D9691807F1FF3C2FD28B4226
:100480002DD9023F2944CB1A81B2B3FBFEF00EFBFB
:10049000103341EA034100FB08F38B4207D9691886
:1004A00000F1FF3C17D28B4215D902382944C91AF2
:1004B00040EA07473BE73746304609E70746E7E6A5
:1004C0001846FBE64145ABD2B8EB020A69EB0E02D7
:1004D00001381346A4E76046E9E7184695E7674602
:1004E000D1E781467CE702382C4447E7ACF1020CA7
:1004F0002B442FE7384608E73746E9E6704700BF48
:1005000070B5074D0A290C462B6802D10D2098477B
:100510002B681BB12046BDE87040184770BD00BF76
:10052000F00100202DE9F04F8A46097887B0054692
:10053000002936D01646DFF80C83C04FDFF8089349
:1005400007E0AB6828469847234654469A466178A8
:1005500039B325290AF10104F3D19AF801103029A1
:1005600003BF54464FF0010C14F8021F4FF0000C6B
:10057000B9B10020632900F0C08016D973291CD0BE
:1005800078292DD064292BD0A1F13003DAB2092AC1
:1005900000EB800005D814F8011F03EB4000002990
:1005A000E8D1286807B0BDE8F08F252916D1AB68DF
:1005B0002846984704F1010AC9E7D6F800B09BF82D
:1005C000001004F1010A04360029C0D0AB682846A7
:1005D00098471BF8011F0029F8D1B8E75829D3D153
:1005E00023783168642B06F1040600F0A480102300
:1005F000B1FBF3F203FB12118DF80C10002A00F08E
:10060000E180B2FBF3F103FB11228DF80D200029EC
:1006100000F0DB80B1FBF3FE03FB1E118DF80E1022
:10062000BEF1000F00F0D580BEFBF3F203FB12EE2B
:100630008DF80FE0002A00F0D0804FF0000EB2FBE2
:10064000F3F103FB11228DF81020002900F0C9807E
:10065000B1FBF3F203FB12118DF81110002A00F028
:10066000C680B2FBF3F103FB11228DF812200029A2
:1006700000F0C380B1FBF3F203FB12118DF81310ED
:10068000002A5FD0B2FBF3F103FB11238DF8143085
:10069000002900F0B8804FF00A0A8DF81510524674
:1006A00009210B23BEF1000F49D006A90A447F217E
:1006B00002F80C1C984228D80AF1010A0DF10C0B23
:1006C000DA4402E09047D34514D01AF8013DAA68F5
:1006D0007F2B4FF02D012846F4D0092B03F1370171
:1006E00003F1300CC9B29CBF28465FFA8CF19047E9
:1006F000D345EAD104F1010A29E73178AB682846ED
:100700000436984704F1010A21E7BCF1000FA0EB81
:10071000030314BF30222022019203F1FF3B002B80
:10072000CAD00BF1FF3BAB68019928469847BBF153
:10073000FF3FF6D1C0E700290ADB0A2358E78A46C3
:100740001346B7E74FF0080A524607210923A9E7E5
:100750003B4B4A42A3FB02E1C90801EB810EA2EB2D
:100760004E0E8DF80CE0002962D0A3FB01AE4FEADB
:10077000DE0E0EEB8E0EA1EB4E0EA8FB02A1490978
:100780008DF80DE04FD0A3FB01AE4FEADE0E0EEB6D
:100790008E0EA1EB4E0EA7FB02A189098DF80EE08B
:1007A0003CD0A3FB01E3DB0803EB8303A1EB430392
:1007B000A9FB0212520B8DF80F302AD00A234FF0FA
:1007C000010E3CE79246012374E74FF0010A022331
:1007D00070E74FF0020A03236CE74FF0030A04238B
:1007E00068E74FF0050A5246042106235AE74FF006
:1007F000060A52460521072354E74FF0070A5246DE
:10080000062108234EE74FF0090A524608210A2321
:1008100048E74FF0040A5246052346E74FF0030A23
:100820005246042341E74FF0020A524603233CE7B5
:100830004FF0010A5246022337E700BFD34D621042
:10084000CDCCCCCC1F85EB515917B7D10FB400B527
:1008500085B006AA064B52F8041B009201A8039328
:10086000FFF760FE05B05DF804EB04B0704700BF11
:1008700001050008704700BFFEE700BFFEE700BFAC
:10088000FEE700BFFEE700BF704700BF704700BF34
:10089000704700BF02F0B2BE014801F059BA00BF74
:1008A000BC020020014801F053BA00BF340200200E
:1008B00008B50448FFF7CAFF0348BDE8084000F048
:1008C000A1B800BFF05E000840030020014803F01B
:1008D00055BC00BF6008002000286FD0F8B590F824
:1008E0003D30044603F0FF0283B322683D4EA56904
:1008F000E0686168022384F83D30B24213685FD03B
:10090000B2F1804F40D0A6F59436B24223D006F51E
:100910008066B2421FD006F58066B2421BD006F553
:100920009436B24217D006F54066B24257D006F56B
:100930008066B24253D006F58066B2424FD023F0B3
:1009400080032B431360D062916217E080F83C2053
:1009500002F0CEF9C9E7A668234F23F070033343B2
:10096000266923F44073334323F080032B43BA42B8
:100970001360D062916215D16369136301235361DF
:10098000002084F83D30F8BDA768266923F0700385
:100990003B4323F44073334323F080032B43136022
:1009A000D0629162114B9A42E6D003F580639A427D
:1009B000E2D003F580639A42E0D1DDE70120704781
:1009C000A768266923F070033B4323F44073334345
:1009D00023F080032B431360D0629162CCE7266939
:1009E000F3E700BF002C014000340140004001400B
:1009F000704700BF704700BF704700BF704700BF1F
:100A0000704700BF03681A69910710B5044602D504
:100A1000DA68920768D41A69520702D5DA68500773
:100A20004FD41A69110702D5DA68120737D41A6948
:100A3000D00602D5DA68D1061ED41A69D20702D5CB
:100A4000DA68D00769D41A69110602D5DA68120685
:100A50006BD41A69D00502D5DA6811066DD41A690B
:100A6000520602D5DA6850066FD41A69910602D58B
:100A7000DA68920649D410BD6FF010021A61DB6982
:100A8000082213F4407F227720466FD1FFF7B2FF90
:100A90002046FFF7B3FF002223682277CDE76FF0EF
:100AA00008021A61DB6904229B07227720465AD18B
:100AB000FFF7A0FF2046FFF7A1FF0022236822775F
:100AC000B5E76FF004021A619B69022213F4407FBC
:100AD0002277204644D1FFF78DFF2046FFF78EFF97
:100AE0000022236822779CE76FF002021A619B695B
:100AF00001229907027730D1FFF77CFF2046FFF7EC
:100B00007DFF00222368227785E76FF020022046D0
:100B10001A61BDE8104002F0CDB86FF001021A6111
:100B20002046FFF765FF23688DE76FF080021A61AA
:100B3000204602F0C1F823688BE76FF480721A61D7
:100B4000204602F0BBF8236889E76FF040021A6183
:100B50002046FFF755FF236887E7FFF74DFFD0E7F3
:100B6000FFF74AFFBCE7FFF747FFA6E7FFF744FFA1
:100B700091E700BF2C4A9368D26813F00C0308D0A9
:100B80000C2B37D0042B33D0082B284818BF00205B
:100B90007047254A1168090754BFD2F8942012689B
:100BA000234954BFC2F30322C2F3031251F82200B7
:100BB000FBB10C2B36D11C49CA68CB6802F003028A
:100BC000C3F30313022A03F1010322D0032A17D02F
:100BD000B0FBF3F0CA68C2F3062300FB03F0124B2C
:100BE000DB68C3F3416301335B00B0FBF3F0704794
:100BF0001048704702F00302012ACAD00020DAE749
:100C0000CA680A48B0FBF3F0C2F3062300FB03F006
:100C1000E5E7CA680748B0FBF3F0C2F3062300FB20
:100C200003F0DCE7002070470010024000127A0059
:100C3000405F00080024F400002800F0D0812DE976
:100C4000F0439A4A03689568D668DA0685B0044688
:100C500005F00C0506F0030600F1F980D90729D547
:100C6000082D00F08A810C2D00F084816368B3F5B3
:100C7000803F00F0CA81B3F5A02F00F0E6828B4FD1
:100C80003A6822F480323A603A6822F480223A606C
:100C9000002B40F0BF8102F0B9FC804606E002F074
:100CA000B5FCA0EB0800642800F295813B6898032E
:100CB000F5D42368990723D5042D00F06B810C2D02
:100CC00000F06581E368794E002B00F00F823368F5
:100CD00043F48073336002F099FC074605E002F0AC
:100CE00095FCC01B022800F2768133685B05F6D5BF
:100CF0007368226923F0FE4343EA0263736023684A
:100D0000190719D56369694E002B00F06A81D6F87E
:100D1000943043F00103C6F8943002F077FC0746A4
:100D200005E002F073FCC01B022800F25481D6F8E3
:100D300094309A07F5D52368580742D55B4B9A6DD6
:100D4000D10000F1D1819A6D42F080529A659B6D7D
:100D500003F080530193019B0127554E3268D20561
:100D600040F12881A368012B00F06782052B00F079
:100D7000FD814E4ED6F8902022F00102C6F8902058
:100D8000D6F8902022F00402C6F89020002B40F004
:100D9000FA8102F03BFC41F28838814606E002F01D
:100DA00035FCA0EB0900404500F21581D6F89030E3
:100DB0009907F4D427B13D4A936D23F0805393658E
:100DC00023689A0618D5636A384E002B00F0A1817B
:100DD000D6F8983043F00103C6F8983002F016FCBC
:100DE000074605E002F012FCC01B022800F2F38067
:100DF000D6F898309B07F5D5A36A33B30C2D00F0D5
:100E0000B580022B00F0DA81284B1A6822F080723C
:100E10001A601A6812F0205F03D1DA6822F0030228
:100E2000DA60224CE36823F0887323F48033E360B4
:100E300002F0ECFB054605E002F0E8FB401B02284F
:100E400000F2C98023689B01F6D400208FE0002DBA
:100E500032D00C2D2ED0A369144F002B00F0E98066
:100E60003B6843F001033B6002F0D0FB804606E0A4
:100E700002F0CCFBA0EB0800022800F2AC803B683B
:100E80009B07F5D53B6843F008033B603B68226A4B
:100E900023F0F00313433B607B68E26923F47F4354
:100EA00043EA02237B602368D8E600BF00100240BB
:100EB00000700040012ECED1BC4B1B689F0752D45E
:100EC000BA4B276A1A68DFF8E482100756BFD3F8D6
:100ED00094301B681B0903F0F0039F4240F2BC8072
:100EE000D8F85830D90000F13E81D8F8583043F096
:100EF0008053C8F85830D8F8583003F08053029324
:100F0000029B02F063FCD8F8583023F08053C8F8F5
:100F10005830B0F5007F00F0A5817F2F00F2B0813E
:100F2000A7F17007B7FA87F77F09A14A136823F082
:100F30000F033B431360136803F00F039F4215D167
:100F40009A4B1A6842F008021A601A68216A22F065
:100F5000F0020A431A605A68E16922F47F4242EAC9
:100F600001225A60ACE0A369002BA9D1012005B091
:100F7000BDE8F083032E7FF479AE8C4A12689203A9
:100F80007FF598AE6268002A7FF494AEEEE7022EF9
:100F90007FF498AE854A1268520502D5E268002AAD
:100FA000E4D0824920694A6822F0FE4242EA0062A7
:100FB0004A60A5E6326842F48072326002F026FB95
:100FC00080463368DB053FF5CDAE02F01FFBA0EB9A
:100FD00008000228F5D9032005B0BDE8F083012000
:100FE0007047D6F8943023F00103C6F8943002F02D
:100FF0000DFB074604E002F009FBC01B0228EAD8FB
:10100000D6F894309B07F6D495E6684A136843F403
:101010008033136002F0FAFA644F804605E002F074
:10102000F5FAA0EB08006428D5D83B689B03F6D5F9
:101030003FE63B6823F001033B6002F0E7FA80469D
:1010400005E002F0E3FAA0EB08000228C3D83B68F1
:101050009807F6D4236801E6D8F8003043F0080377
:10106000C8F80030D8F8003023F0F0033B43C8F84C
:101070000030D8F80430E26923F47F4343EA0223C6
:10108000C8F80430D8F85830DA0057D502F09EFB83
:10109000B0F5007F00F0ED807F2F00F2F380A7F124
:1010A0007007B7FA87F77F09414A136823F00F03E7
:1010B0003B431360136803F00F039F427FF456AF66
:1010C000FFF758FD394B3B499B683B4AC3F3031379
:1010D000CB5C03F01F0320FA03F30020136002F03F
:1010E0005FFA0028B6D042E7002736E6336823F4DB
:1010F0008073336002F08AFA074605E002F086FA50
:10110000C01B02283FF667AF33685805F6D4236842
:10111000F6E5D6F8983023F00103C6F8983002F0CF
:1011200075FA074605E002F071FAC01B02283FF687
:1011300052AFD6F898309807F5D45DE6D8F8583015
:1011400043F08053C8F85830D8F8583003F0805333
:101150000393039B02F03AFBD8F8583023F08053F6
:10116000C8F8583094E702F031FBD2E60F4BD3F8C1
:10117000902042F00402C3F89020D3F8902042F06F
:101180000102C3F8902002F041FA084E814641F274
:10119000883806E002F03AFAA0EB090040453FF635
:1011A0001AAFD6F890309807F4D503E60010024045
:1011B00000200240285F000804000020344D2B6806
:1011C00023F080732B6002F021FA064605E002F05E
:1011D0001DFA801B02283FF6FEAE2B689901F6D45B
:1011E000D4E90D73D4E90B60D4E90F12DB0643EAAE
:1011F000072301383343490843EA001301395208F1
:1012000043EA4153013A43EA4263EB602B68204CC6
:1012100043F080732B60EB6843F08073EB6002F067
:10122000F5F9054605E002F0F1F9401B02283FF60A
:10123000D2AE23689A01F6D507E6154AD2F8903067
:1012400043F00103C2F890309DE703F18043A3F51A
:101250003C331A6842F480221A601A6842F48032E1
:101260001A60D7E6802F11D9A12F34BF012702279A
:101270005BE6802F08D9A12F34BF0127022713E78F
:10128000022752E602270FE700270DE700274CE66A
:1012900000100240002800F0D880894A2DE9F84368
:1012A000136803F00F038B420CD2136823F00F0373
:1012B0000B431360136803F00F038B4202D001202D
:1012C000BDE8F8830368DA0704460D466FD5426827
:1012D000032A7CD07B4B022A1B6800F0B880002ACE
:1012E00040F0B9809E07EAD5FFF744FC764B984260
:1012F00000F2B58062684FF00008724EB36823F0C8
:1013000003031A43B26002F081F941F28837814643
:1013100006E002F07BF9A0EB0900B84200F2AA80D7
:10132000B368626803F00C03B3EB820FF1D123685A
:1013300099073ED4B8F1800F03D1B26822F0F002D1
:10134000B2605F490A6802F00F02AA4209D90A682E
:1013500022F00F022A430A600A6802F00F02AA4232
:10136000ADD15A0706D55749E0688A6822F4E06291
:1013700002438A601B0707D5524A2169936823F408
:10138000605343EAC1039360FFF7F4FB4D4B4F49B1
:101390009B684F4AC3F30313CB5C03F01F0320FA8F
:1013A00003F313600020BDE8F84302F0F9B89F078B
:1013B000C7D54449A0688A6822F0F00202438A60D7
:1013C0003F490A6802F00F02AA42C0D8C9E73D4966
:1013D000086886017FF573AFC86800F00300012834
:1013E0004DD00021374FFE68F86806F00306C0F3C1
:1013F0000310022E00F1010058D0032E4ED1FE68DA
:101400003449B1FBF0F1C6F3062001FB00F12D4E8B
:101410002D4FF068C0F3416001304000B1FBF0F1A6
:10142000B94229D9B16811F0F00F05D013F00208C4
:101430003FF463AFA368FBB9B36823F0F00343F054
:101440008003B3604FF0800857E7012070479F0387
:101450003FF54AAF33E758057FF531AF44E7194A06
:10146000936823F0F00343F08003936062684FF0C9
:10147000800842E7032023E74FF000083DE70868B3
:10148000000754BFD1F894100968134854BFC1F342
:101490000321C1F3031150F82110A3E7FE68B1FB4B
:1014A000F0F1C6F3062001FB00F1B0E7FE680B493E
:1014B000B1FBF0F1C6F3062001FB00F1A7E700BF86
:1014C000002002400010024000B4C404285F00085D
:1014D0000400002000127A00405F00080024F4009D
:1014E000014B1868704700BF04000020054B064AF6
:1014F0009B680649C3F302230868D35C03F01F030B
:10150000D840704700100240385F000804000020F7
:10151000054B064A9B680649C3F3C2230868D35C9F
:1015200003F01F03D840704700100240385F0008E6
:101530000400002070B50021BCB00C46442206A86F
:1015400004F0C0FC214617A89422CDE90144CDE95E
:101550000344059404F0B6FC204602F049F900B1BA
:10156000FEE7034602241021012560220D9306A800
:101570003C23139306910C95CDE911550E921094CE
:10158000CDE914441694FFF757FB034600B1FEE77C
:101590000F22CDE90333059301A80323052102930C
:1015A0000192FFF777FE034600B1FEE742F206061E
:1015B0004FF08061CDE9273318224FF4801317A82C
:1015C000CDE91855CDE91B441D94179634911A9214
:1015D0001E9301F077FD00B1FEE701F0B1FF3CB0D2
:1015E00070BD00BF2DE9F04FC54CC64B624212F0F2
:1015F000030291B01E7800F05581731C012A2670F9
:10160000DBB200F04C81B11C032A6370CBB240F016
:101610004D81F11CA3703D25CBB2009200215F1CCF
:1016200063F3070167F30F219F1C67F31741DF1C6A
:1016300067F31F6101F07F3707F1043701F0803A4B
:101640008AEA070A0AF07F3707F104370AF080397F
:1016500089EA070909F07F3707F1043709F0803874
:1016600088EA070808F07F3707F1043708F0803E62
:101670008EEA070E0EF07F3707F104370EF0803C3C
:101680008CEA070C0CF07F370CF0803B07F1043735
:101690008BEA0707384607F07F3707F1043700F079
:1016A000803B8BEA070B0BF07F3707F10437CDF84F
:1016B00008B00BF0803B8BEA070B0BF07F3707F18C
:1016C0000437CDF80CB00BF0803B8BEA070B0BF026
:1016D0007F3707F10437CDF810B00BF0803B8BEA71
:1016E000070B0BF07F37CDF814B007F104370BF080
:1016F000803B8BEA0707A15007F07F3BA118C1E9A7
:1017000001A90BF1043B07F0803989EA0B09C1E913
:10171000038E09F07F3E0EF1043EC1F814C009F0BB
:10172000803C8CEA0E0C0CF07F3E01900CF080386F
:10173000019888610EF1043E88EA0E0E0298C86195
:10174000C2F14002D2B203980862C1E90B790EF0EF
:101750007F370498C1F834C007F104384FEA920C7F
:101760000EF08037486287EA0807BCF1100F059831
:1017700008BFCF638862C1F838E0009902F0FC0727
:1017800039443B44ED1BBA42C9B2DBB2EDB20ED0D4
:101790005F1C481C012D6354FFB2C0B207D09A1CD5
:1017A0008B1CDBB2D2B2022D275418BFE254554B2A
:1017B000554D002440361E7001F00CFFFFF7BAFEB5
:1017C000CDE90B44CDE90D44504B0F94DA6C5048F1
:1017D00042F02002DA64DA6C02F020020692069AE5
:1017E000DA6C42F08002DA64DA6C02F0800207926E
:1017F000079ADA6C42F00202DA64DA6C02F0020252
:101800000892089ADA6C42F00802DA64DA6C02F0A4
:1018100008020992099ADA6C42F00102DA64DB6C80
:1018200003F001030A93224640210A9B00F082FA4A
:1018300022464FF48041374800F07CFA01264023CD
:101840000BA93348CDE90B36CDE90D4400F072F910
:101850004FF480430BA92F480B93CDE90C640E94F1
:10186000802600F067F90BA92A480B96CDE90C44B5
:1018700000F060F9284BAC604FF4E1380C272846A3
:10188000C5E90344C5E90644C5E90844AC62C5E9B5
:1018900000386F6100F0A4FB014658B1FEE73F2518
:1018A0000092BBE6334640250092B7E602213E2572
:1018B0000091B3E6284601F0E1FE014600B1FEE7E3
:1018C000284601F02FFF00B1FEE7284601F0B8FEE0
:1018D000034600B1FEE7114C114AC4F804802046CB
:1018E000C4E90233C4E90437C4E90633C4E9083360
:1018F000A362226000F074FB014698B1FEE700BFCE
:10190000800300200000002034020020001002406C
:10191000001400480004004800480040BC020020B9
:1019200000440040204601F0A9FE014600B1FEE758
:10193000204601F0F7FE00B1FEE7204601F080FEF0
:1019400000B1FEE7184C19490B904FF6FF733C228B
:10195000CDE90C00A0602046E360A661C4E9001256
:10196000FEF7BAFF034600B1FEE70BA920460B9332
:101970000D9301F06FF900B1FEE701F0C7FF0C4BCA
:101980000C4A0D4E0D4D0E4C1A6030464FF48041FE
:1019900000F0D6F940222946204604F025FA6420BA
:1019A00001F03AFEF1E700BF4003002000140040C0
:1019B000F0010020FD3800080004004880030020EA
:1019C000C4030020F8B55648564DFEF73FFF564B6E
:1019D000284640220021D3F8904204F073FA53487D
:1019E000002303702378002B00F08E80621DAA4232
:1019F0008CBF00220122611C2E1DB14228BF42F083
:101A00000102002A00F081800B2B7ED962782A70B7
:101A1000A2786A70E278AA70D4E90126D91EC9B208
:101A2000C5F803208A08022AC5F807603FD0E66897
:101A3000C5F80B60032A3AD02669C5F80F60042A5E
:101A400035D06669C5F81360052A30D0A669C5F897
:101A50001760062A2BD0E669C5F81B60072A26D036
:101A6000266AC5F81F60082A21D0666AC5F8236077
:101A7000092A1CD0A66AC5F827600A2A17D0E66A88
:101A8000C5F82B600B2A12D0266BC5F82F600C2AE4
:101A90000DD0666BC5F833600D2A08D00E2AA66BF0
:101AA00018BFE26BC5F8376018BFC5F83B2001F0DE
:101AB000FC02D61C9142F6B225D0A719111DC9B25D
:101AC0007F78AF5599421ED26718561D7F786F54A4
:101AD000F1B28B4217D96718961D7F786F54F1B217
:101AE0008B4210D96718D61D7F786F54F1B28B42A4
:101AF00009D966180832D2B276786E54934202D968
:101B000014446178A9540370F8BD5D1E054A51FA6A
:101B100085F514F8011F02F8011BAC42F9D1F2E778
:101B2000045F0008F4010020C4030020B802002074
:101B3000FEE700BFD1F800C0BCF1000F00F0D78075
:101B40002DE9F04FDFF8E491DFF8E4E183B0884657
:101B500000250123AB4013EA0C067DD0D8F8041011
:101B600021F0100ABAF1020F7ED06F000322D0F8E4
:101B700000B0BA40D24301F0030402EA0B0BBC40B0
:101B80000AF1FF3A44EA0B04BAF1010F046040F293
:101B90008C80C468D8F808302240BB401343CF0083
:101BA000C36059D5D9F8603043F00103C9F86030FB
:101BB000D9F8603025F0030202F1804203F00103FE
:101BC00002F58032019305F00304019B9768A4009D
:101BD0000F23A340B0F1904F27EA03031AD04C4FD4
:101BE000B8427AD04B4FB84272D04B4FB8427FD0F8
:101BF0004A4FB84200F08180494FB84272D0494FF5
:101C0000B8427FD0484FB8420CBF0727082707FAD1
:101C100004F423439360DEF80030F243CC0354BF56
:101C200013403343CEF80030DEF804308F0354BF46
:101C300013403343CEF80430DEF80830CC0254BFF2
:101C400013403343CEF80830DEF80C30890254BF1D
:101C500013403343CEF80C3001353CFA05F37FF4E2
:101C600078AF03B0BDE8F08FEF0800EB870705F011
:101C700007043A6AA4004FF00F0B0BFA04FB22EAA8
:101C80000B0AD8F81020A24042EA0A023A626F001A
:101C90000322D0F800A0BA40D24301F0030402EAC4
:101CA0000A0ABC4044EA0A040460846802EA040A9E
:101CB000D8F80C40BC4044EA0A048460D0F804A080
:101CC000C1F300142AEA0303AC401C43446060E7FC
:101CD000022707FA04F423439CE7012707FA04F4D8
:101CE000234397E7052707FA04F4234392E7704755
:101CF000032707FA04F423438CE7042707FA04F4C4
:101D0000234387E7062707FA04F4234382E700BF4B
:101D10000004004800080048000C0048001000487B
:101D20000014004800180048001C00480010024041
:101D3000000401400AB9816270478161704700BFA9
:101D40004369594041617047704700BF704700BF09
:101D50000368DA692DE9F0411507044618689968A7
:101D600063D06B4D0D4000F08280D70709D5C605C2
:101D700007D501261E62D4F8806046F00106C4F83B
:101D80008060970702F0040640F18580CF0709D5EF
:101D900002271F62D4F8807047F00407C4F88070EF
:101DA000002E7CD1170705D5860600F18880002D0E
:101DB00040F08580D4F88050002D6AD0950607D574
:101DC000800640F18980E26E12B120469047236878
:101DD000D4F88020170704D49D6815F0400500F062
:101DE00091801A6822F490721A609A6822F08052E8
:101DF00022F0010220219A6084F87E109A68002166
:101E00005606E16664D59A68A06F22F040029A6097
:101E100000285DD03F4B836300F0E4FE002838D0FB
:101E2000A06FBDE8F041836B1847970609D5860679
:101E300005D5E36E6BB32046BDE8F0411847CD00F1
:101E4000F7D4D50209D4160619D5050615D5236F82
:101E5000FBB12046BDE8F04118474F02F3D54FF4DF
:101E6000801220461A62BDE8F04101F0E3BB10F495
:101E7000907FE6D0D70784D579E70902E7D45706E3
:101E800001D546062CD4150212D4D30101D5002861
:101E900033DBBDE8F081002E84D0CE0782D5042646
:101EA0001E62D4F8806046F00206C4F8806079E7CC
:101EB0004100EAD52046BDE8F04101F0BFBB08254E
:101EC0001D62D4F8805045F00805C4F8805071E7D1
:101ED0002046FFF73BFFDCE7CA007FF579AF72E7EA
:101EE0001A68202522F0400200211A60204684F85A
:101EF0007D502167FFF728FFCBE72046BDE8F04182
:101F000001F09ABB2046FFF721FFC4F88050C0E7DC
:101F100001000010191F000808B5836A0022A3F809
:101F20005E201846A3F85620FFF710FF08BD00BF3B
:101F3000836ADA0710B406D50168C46A4A6822F4D5
:101F4000003222434A609C0706D50168046B4A6848
:101F500022F4803222434A60590706D50168446B57
:101F60004A6822F4802222434A601A0706D5016893
:101F7000846B4A6822F4004222434A60DC0606D59C
:101F80000168C46B8A6822F4805222438A609906F1
:101F900006D50168046C8A6822F4005222438A60E4
:101FA0005A0609D50168446C4A6822F4801222431B
:101FB000B4F5801F4A600BD01B0606D50268C16CC1
:101FC000536823F400230B4353605DF8044B7047C0
:101FD0004A68846C22F4C00222434A60ECE700BFE6
:101FE000002800F07B8290F87D302DE9F04803F066
:101FF000FF020446002B5DD02368C148242284F8E8
:102000007D20D4E904651968A26821F001011960F6
:102010003243E1691E682A43656E0A4330402A4311
:1020200002431A605A68E568B648A66922F440522D
:102030002A4383425A60656A41D09868226AB24F47
:1020400020F06E4020F43060324302439A60DA6A36
:1020500022F00F022A43BB42DA6200F09580AB4ABD
:10206000934200F0AA80AA4A934200F09C81A94AB8
:10207000934200F05981A84A934212D1A74BD3F85A
:10208000883003F44073B3F5807F00F00D8140F297
:10209000C281B3F5007F00F09281B3F5407F00F07C
:1020A000508100234FF00112C4E91A232367012055
:1020B000BDE8F08880F87C2000F03AFE9CE7996843
:1020C000964821F06E4121F4306131439960DA6A1B
:1020D00022F00F022A43DA62D0F8883003F440631A
:1020E000B3F5806F00F02E8240F2FA81B3F5006FF5
:1020F00000F07083B3F5406FD3D1002D00F09183D1
:10210000012D00F0B983022D00F0C983032D00F0EA
:10211000E383042D00F0FF83052D00F01884062DC5
:1021200000F03C84072D00F08D84082D00F08F8492
:10213000092D00F0AD840A2D00F0EE840B2D0CBFAC
:1021400080204FF400400823626802EB4201814284
:10215000A7D8B0EB023FA4D8082BA2D801A151F810
:1021600023F000BF5D270008A32000081127000806
:10217000A3200008CF270008A3200008A320000800
:10218000A320000899260008644B654AD3F88830DC
:1021900003F00303D35CB1F5004F00F08781082BF7
:1021A00000F2D484DFE813F0F80011000F01D2042C
:1021B0008400D204D204D204D100584B594AD3F837
:1021C000883003F00C03D35CE5E7FFF7A1F9636AFD
:1021D000002B72D16168002200EB5103B3FBF1F3D5
:1021E0009BB2A3F110004FF6EF7188423FF659AF52
:1021F000256800214FF00110EB60C4E91A01216746
:10220000002A7FF454AFA36A002B40F04B8123686F
:102210005A6822F490425A609A6822F02A029A6020
:102220001A68002142F001021A60C4F8801001F01F
:10223000EDF923681A68110706460CD41A6852078C
:1022400026D42023002084F87D3084F87C0084F894
:102250007E30BDE8F088DD6915F40015EED101F09F
:10226000D5F9801BB0F1007F2368F4D31A6822F4FB
:10227000D0721A609A68202122F001029A6003202D
:1022800084F87D1084F87C5084F87E10BDE8F088D6
:10229000DD6915F48005D4D101F0B8F9801BB0F1E7
:1022A000007F2368F4D3E1E7B1F5004F00F08D81A2
:1022B000FEF760FC636A002B8CD0012B00F0AF822C
:1022C000022B00F08081032B00F07A81042B00F0B8
:1022D000B982052B00F0B382062B00F0EE82072BAB
:1022E00000F00F83082B00F02383092B00F05D839F
:1022F0000A2B00F058830B2B08BF000A6AE700BFC7
:10230000F369FFCF008000400038014000440040E6
:1023100000480040004C00400050004000100240C7
:10232000145F0008185F0008D64BD3F8883003F01C
:10233000C003402BB8D06ED9802B40D0C02B7FF487
:10234000B0AEB1F5004F00F07481002D00F02E8189
:10235000012D00F07B82022D00F09982032D00F008
:10236000A582042D00F0C882052D00F0DE82062D26
:1023700000F0F482072D00F01C83082D00F02E835E
:10238000092D00F09F830A2D00F099830B2D14BFB7
:102390004FF40043802301E1FFF7A8F8636A002BA4
:1023A0003FF418AF89E7B74BD3F8883003F0300318
:1023B000102B3FF479AF2ED9202B40F0EA80B1F5F5
:1023C000004F00F00981002D00F0E780012D00F0A2
:1023D0003B82022D00F05982032D00F06C82042D07
:1023E00000F08D82052D00F09E82062D00F0B48253
:1023F000072D00F0DC82082D00F0EE82092D00F0A0
:102400004E830A2D00F049839F4B4FF224420B2D3F
:1024100008BF1346C2E0002B7FF443AEB1F5004F76
:10242000BAD1FFF763F8626A02B3012A00F00082B2
:10243000022A00F00E82032A00F02282042A00F011
:102440003882052A00F05482062A00F07382072A97
:1024500000F08782082A00F0B482092A00F0128373
:102460000A2A00F00D830B2A08BF000A626853088D
:1024700003EB4003B3FBF2F39BB2A3F110014FF661
:10248000EF7291423FF60DAE23F00F022068C3F3C6
:10249000420313434FF001110022C360C4E91A1232
:1024A0002267B0E62046FFF743FDB0E6082B3FF673
:1024B000F8AD01A252F823F023240008B325000848
:1024C000D9250008A3200008CB250008A320000878
:1024D000A3200008A320000833260008012070472D
:1024E000002B7FF4DEADFFF701F8636A03B3012B25
:1024F00000F0BB81022B00F0B681032B00F0B0810D
:10250000042B00F0E281052B00F0DC81062B00F0AB
:102510004182072B00F09482082B00F0A382092B44
:1025200000F0BF820A2B00F0F5820B2B08BF000AD7
:10253000002300287FF408AE4FF00113C4E91B000C
:10254000A36660E6FEF716FB636A03B3012B00F097
:102550009181022B00F08281032B00F07C81042BFF
:1025600000F0B881052B00F0B281062B00F0FE814F
:10257000072B00F02F82082B00F07682092B00F049
:102580009C820A2B00F0B5820B2B08BF000A0423A3
:10259000CFE7302B3FF4D5AE83E53B4B616800229B
:1025A00003EB5103B3FBF1F39BB21AE64FF4004384
:1025B000F4E7FEF7ADFF626A002A3FF457AF34E755
:1025C000324BA3FB0030800804E6FEF7D3FA626AC0
:1025D000002A3FF44BAF28E7002D00F02B81012D9E
:1025E00000F05881022D00F07B81032D00F08E81D8
:1025F000042D00F0AA81052D00F0C781062D00F002
:102600001D82072D00F02C82082D00F05E82092D1E
:1026100000F06A820A2D00F071821D4B1D4A0B2DBD
:1026200008BF1346626803EB5203B3FBF2F39BB29D
:1026300023E7002D00F00081012D00F02D81022DF7
:1026400000F05081032D00F06381042D00F07681AD
:10265000052D00F09C81062D00F0ED81072D00F086
:102660000582082D00F02682092D00F03F820A2DF8
:1026700000F041820B2D14BF4FF480334FF4807370
:10268000D0E700BF001002400024F400ABAAAAAAC1
:102690000048E80148E80100636A03B3012B00F039
:1026A0006981022B00F09281032B00F0E681042B5C
:1026B00000F0EA81052B00F02A82062B00F024822C
:1026C000072B00F01D82082B00F03C82092B00F044
:1026D0004F820A2B00F048820B2B00F041824FF40E
:1026E000000500265308E81846F100010023FDF715
:1026F00087FDA0F54072BB4B9A423FF6D2AC2168F1
:1027000000234FF00112C860C4E91A2323677AE559
:10271000636A03B3012B00F03181022B00F0848146
:10272000032B00F0A681042B00F0C181052B00F0E3
:102730000382062B00F0FC81072B00F0F681082BAA
:1027400000F00882092B00F01A820A2B00F0148294
:102750000B2B00F00282A44D0026C3E7FEF7C6FE55
:10276000636A00210BB3012B00F0D980022B00F02B
:10277000FA80032B00F02081042B00F02481052B2C
:1027800000F0AD81062B00F0A581072B00F09F81A2
:10279000082B00F0D481092B00F0F7810A2B00F000
:1027A000F1810B2B04BF000A002162680F0247EA87
:1027B00010670602500816EB000B47F1000C584654
:1027C00061460023FDF71CFDA0F5407293E7FEF77C
:1027D000D1F9C5E74DB3012D49D0022D63D0032DAA
:1027E00000F08380042D00F08E80052D00F0A9807C
:1027F000062D00F0C680072D00F01981082D00F08D
:102800002B81092D00F04F810A2D00F08A81774B32
:102810004FF224400B2D18BF1846022394E44008C1
:10282000D8E408234FF400408EE402236F488BE481
:1028300040081BE66E4BF5E64FF48033F2E66D4B35
:10284000A3FB0030C008C5E46B4BA7E64FF4804300
:10285000A4E680080AE6694BA3FB0030800896E6F0
:10286000664BA3FB0030800862E6400860E6022366
:10287000614869E440088AE608234FF4804063E435
:102880005E4BA3FB00239808F0E55D4B86E64FF412
:10289000005383E6554BC5E64FF40043C2E60823D8
:1028A0004FF4005050E42B4655484DE441F2555347
:1028B00074E6C008DAE5534B70E6504BA3FB0030DA
:1028C000C00887E44B4BA3FB0030C00830E6494BFF
:1028D000A3FB0030C0085AE6082341F2555033E408
:1028E000454B9FE64FF480439CE6022345482BE48A
:1028F0000A23B0FBF3F0B9E54FF480534EE6424BA8
:102900004CE6000966E402233F481DE43F4B89E69C
:1029100042F6AA2386E608234FF4805014E44908BF
:102920004FEA300041E73A4B38E640F6CC4335E613
:1029300040094FE40C23B0FBF3F097E54FF400534C
:1029400070E602233248FFF7FFBB2D4B6AE60823EF
:1029500040F6CC40FFF7F8BB2E4B1FE640F6AA230B
:102960001CE6000982E5800800211EE70C23B0FB6D
:10297000F3F00CE64FF480050026B3E6264D002662
:10298000B0E602232348FFF7DFBB244B4AE641F6BB
:10299000981347E60C23B0FBF3F0C9E5082340F693
:1029A000AA20FFF7D1BBC00914E4800912E41C4B34
:1029B000F4E54FF40063F1E506220023FDF720FC67
:1029C000F3E6400952E5C0080021EEE64FF4001599
:1029D000002687E60009DAE5124BDFE54FF4806355
:1029E000DCE500BFFFFC0F00000024F40024F4002D
:1029F0000048E801CDCCCCCC00127A00ABAAAAAA40
:102A000000093D00AAB0280080841E0054615100D6
:102A1000006A1800555814000000127A00D43000E3
:102A200040420F0020A107005D4D00265AE6022318
:102A30005C48FFF789BB41F25453F3E55A4BF1E58B
:102A4000000975E508234FF40060FFF77DBB2B46B6
:102A50004FF48060FFF778BB02235448FFF774BB44
:102A6000534BDFE5400963E5400990E54FF480539F
:102A7000D8E547A6D6E9005634E64E4D002631E6A5
:102A8000C009F3E48009F1E44FF48015002629E63B
:102A900008234FF40070FFF757BB474B7EE5474BC9
:102AA0007CE5800944E502234448FFF74DBB444DD3
:102AB000002617E64FF40063B4E5800967E54FF49C
:102AC00080736BE54FF4007368E5364BAAE50009A7
:102AD00000216AE60C220023FDF792FB65E60A223C
:102AE0000023FDF78DFB60E6304B9BE54FF48063E0
:102AF00098E5C0094BE54FF4007393E52F4B91E542
:102B00004FF400250026EDE52E4D0026EAE52E4D7A
:102B10000026E7E5C0090BE508234FF48070FFF7B6
:102B200013BB02232448FFF70FBB284D0026D9E52D
:102B300019A6D6E90056D5E5254D0026D2E540096F
:102B4000002132E64FF480250026CBE50122002348
:102B5000FFF747BB1F4D0026C4E51F4D0026C1E50A
:102B60004FF400450026BDE54FF480350026B9E559
:102B70004FF400350026B5E5184D0026B2E5184D96
:102B80000026AFE5C00900210FE6800900210CE610
:102B900000AAB028000000000055581400000000F2
:102BA0000000093D40420F00AAB0280020A1070004
:102BB00080841E000055150048E8010090D00300F5
:102BC0000080841E00AA0A0000CC0C000040420FC6
:102BD00000006A180020A1070024F4000048E80162
:102BE0000090D00390F82530022B03D00423C36358
:102BF000012070470368196821F00E0170B5856CDB
:102C0000C66CD0E910421960196821F00101196001
:102C10002B68416D23F480732B6002F01C020123AA
:102C20009340026D6360726031B10B68D0E9162485
:102C300023F480730B605460836B0122002480F8BE
:102C4000252080F8244013B19847204670BD1846CF
:102C500070BD00BF90F83C30012B25D070B40268E5
:102C6000134D022380F83D30AA425368946816D071
:102C700005F50065AA4212D00E688D6823F0700336
:102C800024F08001334300242943012553609160DF
:102C900080F83D5080F83C40204670BC70474D683D
:102CA00023F470032B43E7E702231846704700BF65
:102CB000002C0140704700BF704700BF704700BF45
:102CC0000A4B1A6E42F001021A661A6E82B002F0C6
:102CD00001020092009A9A6D42F080529A659B6DB3
:102CE00003F080530193019B02B070470010024033
:102CF00002680E4B9A4200D0704703F5FE3300B5D0
:102D00009A6D42F020029A659B6D83B0002203F019
:102D10002003019311463720019B00F087F83720EC
:102D200003B05DF804EB00F0B7B800BF001400403A
:102D300070B50368304A8AB000249342CDE9054457
:102D4000CDE9074409942ED02C4A934201D00AB011
:102D500070BD2B4B2B489A6D42F480229A659A6D78
:102D600002F480220392039ADA6C42F00802DA64D9
:102D7000DB6C03F0080304934FF4407305A90322AE
:102D8000059302250723CDE90823049E0695FEF747
:102D9000D1FE22462146272000F048F8272000F0E7
:102DA0007BF80AB070BD164B16489A6D42F400329B
:102DB0009A659A6D02F400320192019ADA6C42F03F
:102DC0000802DA64DB6C03F008030293602305A9B0
:102DD0000322059302250723CDE90823029E0695C9
:102DE000FEF7A8FE22462146262000F01FF82620E6
:102DF00000F052F80AB070BD0044004000480040A6
:102E000000100240000C0048074AD3684FF6FF014B
:102E10000B40000243F0BF6300F4E06043F4003372
:102E20000343D360704700BF00ED00E0184BDB6840
:102E3000C3F3022330B4C3F10705042D03F10404E6
:102E400028BF0425062C19D9033B4FF0FF349C40C2
:102E500022EA04044FF0FF32AA4021EA020101FAFB
:102E600003F2224312010028D2B20ADB00F16040D3
:102E700000F5614080F8002330BC704700242346F1
:102E8000E8E7044B00F00F0003441A7630BC7047AB
:102E900000ED00E0FCEC00E000F01F010123400920
:102EA000024A8B4042F82030704700BF00E100E04A
:102EB0000138B0F1807F0ED2084B10B4084C586036
:102EC000F02084F823000022072110469A60196040
:102ED0005DF8044B70470120704700BF10E000E030
:102EE00000ED00E03F4AF8B5D4680368A40706D0B7
:102EF000D26802F003029A420BD00120F8BD022BE7
:102F000043D0032B4DD0012BF7D112689707F4D58E
:102F10003EE0002AF1D0334C236823F08063236025
:102F20000F46054600F072FB064604E000F06EFB1B
:102F3000801B022833D823681A01F7D4D5E901236E
:102F4000013A12011B02002F32D12669E868264996
:102F500043EAC06331400B4313432361214C236890
:102F600043F08063236000F051FB064604E000F06C
:102F70004DFB801B022812D823681B01F7D5AA69D4
:102F80002369134323610020F8BD12685605B4D5A8
:102F9000144CE26822F003021343E360BBE7032012
:102FA000F8BD1468A503F3D412685403A5D5EFE760
:102FB000012F26690AD00D49686931400B4340084A
:102FC0001A43013842EA40622261C7E7084928698A
:102FD00031400B4340081343421E43EA42532361EE
:102FE000BCE700BF001002400F80FF070F80FFF911
:102FF0000F809FFF314A0368D168890706D0D268E5
:1030000002F003029A420BD001207047022B41D0FC
:10301000032B4BD0012BF7D112689107F4D53CE07C
:10302000002AF1D070B5254C236823F0805323602B
:10303000064600F0EBFA054604E000F0E7FA401B14
:10304000022831D823689A00F7D4D6E90253606980
:103050001B497268DB0643EA052301400B43013A32
:1030600043EA021363612368144D43F080532360E5
:1030700000F0CCFA044604E000F0C8FA001B022875
:1030800012D82B689B00F7D5B2696B6913436B614B
:10309000002070BD12685205B6D50849CA6822F0F2
:1030A00003021343CB60BDE7032070BD11688903A1
:1030B000F3D412685103A7D5EFE700BF0010024018
:1030C0000F80FF072DE9F043036813F4006683B017
:1030D00004461BD0C16E402900F0FE8100F2198227
:1030E000002900F0F481202940F019822030FFF7F8
:1030F00081FF064623684EB9E16EBF48D0F89C2098
:1031000022F0E0021143C0F89C100026DF0440F1D9
:103110002E81216FB1F5007F00F0E48100F21E8165
:10312000002900F0CA81B1F5807F40F01F8104F1D1
:103130002000FFF75FFF23680746002F40F0C5819E
:10314000AD49206FD1F89C2022F4E06202439D0338
:10315000C1F89C2000F10F81D80708D5A649E06B83
:10316000D1F8882022F003020243C1F88820990791
:1031700008D5A149206CD1F8882022F00C02024326
:10318000C1F888205A0708D59B49606CD1F888207F
:1031900022F030020243C1F888201F0708D5964963
:1031A000A06CD1F8882022F0C0020243C1F8882028
:1031B000DD0608D59049E06CD1F8882022F44072F1
:1031C0000243C1F88820980608D58B49206DD1F8B4
:1031D000882022F440620243C1F88820990508D56E
:1031E0008549606ED1F8882022F440220243C1F85C
:1031F00088205A0508D58049A06ED1F8882022F48D
:1032000040120243C1F888205F0608D57A49606DF4
:10321000D1F8882022F440520243C1F888201D06CC
:1032200008D57549A06DD1F8882022F440420243A8
:10323000C1F88820D80508D56F49E06DD1F88820FD
:1032400022F440320243C1F88820D90208D56A49E5
:10325000206ED1F89C2022F003020243C1F89C208A
:103260009A0410D56449606FD1F8882022F040623A
:103270000243B0F1006FC1F8882000F00281B0F184
:10328000806F00F03E811F031AD5A06F5A4AB0F537
:10329000804FD2F89C1000F0F98021F48041C2F8F0
:1032A0009C10D2F8881021F040610143B0F1006F0A
:1032B000C2F8881040F0D680D16841F48011D16006
:1032C0005D0310D54C49E06FD1F8882022F04062B0
:1032D0000243B0F1006FC1F8882000F0E080B0F147
:1032E000806F00F0068158040DD54348D4F8801053
:1032F000D0F8882022F040520A43B1F1805FC0F834
:10330000882000F0D180D90309D53B49D4F8840046
:10331000D1F89C2022F004020243C1F89C209A02BA
:1033200009D53549D4F88800D1F89C2022F018023C
:103330000243C1F89C20DB010CD52F4AD4F88C1035
:10334000D2F89C3023F440130B43B1F5001FC2F8B0
:103350009C307FD0304603B0BDE8F083B1F5407FAC
:1033600000F0DF80B1F5806F00F0DB80012637468A
:103370009D037FF5F1AE204B9A6DD0005ED54FF0E6
:1033800000081E4D2B6843F480732B6000F03EF95B
:10339000814605E000F03AF9A0EB090002286ED85A
:1033A0002B68D905F6D5002F40F0C580124BD4F814
:1033B0009010D3F8902012F440722DD08A422BD076
:1033C000D3F89000D3F8902042F48032C3F89020D4
:1033D000D3F8902022F48032C3F8902020F4407576
:1033E000C207C3F8905017D51D4600F00FF941F2FF
:1033F000883781460AE000BF00100240007000409C
:1034000000F004F9A0EB0900B84238D8D5F89030A4
:103410009B07F5D5D4F89010484AD2F8903023F4A1
:1034200040730B43C2F89030B8F1000F04D0434A08
:10343000936D23F08053936523688DE69A6D42F077
:1034400080529A659B6D03F080530193019B4FF06E
:10345000010896E7D368304643F48013D36003B085
:10346000BDE8F083B0F1806F7FF42AAF0121201D09
:10347000FFF738FD00285CD00646236820E70326C6
:10348000D2E7CA6842F48012CA60FCE641F4804187
:10349000C2F89C10D16841F48031D16010E7CA684D
:1034A00042F48012CA601EE70221201DFFF71AFDB8
:1034B000002838D00646236825E7201DFFF712FDB7
:1034C00007462368002F3FF43BAE3E4650E70430EA
:1034D000FFF708FD06460DE61848C26842F4803240
:1034E000C2600AE61549CA6842F48032CA603746AB
:1034F00023E60121201DFFF7F5FCC0B10646236835
:10350000F1E60121201DFFF7EDFC70B106462368AE
:10351000B9E660293FF4F1AD80293FF4EEAD012614
:10352000F4E5374609E62368EDE62368ABE6236851
:10353000D9E62368C4E63E4676E700BF00100240A5
:10354000024A136843F004031360704700100240FE
:103550001149124BD1F8882042F4700210B4C1F81E
:1035600088201A68002042F001021A6098601A68E8
:1035700022F0A85222F410224FF480541A60DC602A
:103580001A684FF0006422F480221A6098618C60FF
:103590005DF8044B704700BF00ED00E000100240F2
:1035A00038B50A4B0A4A1B68A2FB03230546980953
:1035B000FFF77EFC08B1012038BD044602462946CB
:1035C0004FF0FF30FFF732FC204638BD04000020EA
:1035D000D34D621000B5032083B0FFF715FC002027
:1035E000FFF7DEFF18B1012003B05DF804FB019086
:1035F000FFF766FB019803B05DF804FB024A13680D
:1036000001331360704700BFC0030020014B1868EE
:10361000704700BFC003002038B50446FFF7F6FF2F
:10362000631C054618BF0134FFF7F0FF401BA042A2
:10363000FAD338BD704700BF704700BF704700BF66
:1036400090F87C20012A17D030B40268242180F839
:103650007D10034610681468002120F0005024F00B
:1036600001042025146059661060084683F87D50D7
:1036700083F87C1030BC70470220704790F87C20A3
:10368000012A4BD0034624201A68F0B483F87D0049
:10369000146810685D6E20F001001060906820F0E2
:1036A000604084B001431E489160009040F20711D1
:1036B00000F1013000F20620ADF804104FF48471DF
:1036C0000290ADF80C1035B39568966804A9C5F35F
:1036D00042650D4401EB567615F8101C16F8100CD7
:1036E00015F8087C16F8085CC900C000C9B2C0B261
:1036F000B1FBF7F1B0FBF5F0A3F868100021A3F8D7
:103700006A0020250846146083F87D5083F87C10F9
:1037100004B0F0BC704701210846EDE70220704775
:103720000101010390F87C20012A4BD0034624209C
:103730001A68F0B483F87D00146810685D6E20F09C
:1037400001001060906820F0606084B001431E4862
:103750009160009040F2071100F1013000F2062064
:10376000ADF804104FF484710290ADF80C1035B32D
:103770009568966804A9C5F342650D4401EB567639
:1037800015F8101C16F8100C15F8087C16F8085CD3
:10379000C900C000C9B2C0B2B1FBF7F1B0FBF5F08F
:1037A000A3F868100021A3F86A00202508461460D9
:1037B00083F87D5083F87C1004B0F0BC7047012181
:1037C0000846EDE70220704701010103074B186826
:1037D00000F4C060B0F5806F07D0D3F8803013F4E8
:1037E000807F14BF4FF400700020704700700040CD
:1037F0003B4A10B4136868B903F4C063B3F5806F33
:1038000014D0D2F880305DF8044B23F48073C2F8F2
:1038100080307047B0F5007F2FD023F4C06343F4AD
:103820008063136000205DF8044B7047D2F880106D
:103830002C4B2D4821F48071C2F88010116821F4BE
:10384000C06141F4007111601C685169322303FBAF
:1038500004F3A0FB03039B0C480503F1010306D509
:1038600000E023B15169490503F1FF33F9D41C4B42
:103870005B695C05D6D50320D5E703F4C063B3F5D7
:10388000806F09D0D2F880305DF8044B43F4807328
:103890000020C2F880307047D2F88010114B1248D7
:1038A00041F48071C2F88010116821F4C06141F4C4
:1038B000007111601C685169322303FB04F3A0FB03
:1038C00003039B0C480503F10103D0D501E0002B55
:1038D000CDD05169490503F1FF33C8D5F7E700BFE3
:1038E000007000400400002083DE1B43024A53683E
:1038F00043F480635360704700700040024A1085B3
:10390000D3695B06FCD570470048004008B500222B
:103910000A490B4801F0F2FC0A49094801F004FD8C
:103920000949074802F078FA054800F033FA00B96F
:1039300008BD0348BDE8084001F0FEBC08000020B7
:10394000C40300209C0000208C00002012230B8068
:10395000004870473400002004230B800048704763
:10396000480000200C230B800048704728000020EE
:1039700010B5044C04480A46214602F09FF8204640
:1039800010BD00BF600600209C5F000810B5044C0D
:1039900004480A46214602F091F8204610BD00BFB7
:1039A00060060020B05F000810B5044C04480A46C9
:1039B000214602F083F8204610BD00BF60060020BB
:1039C000D05F000810B5044C04480A46214602F0B6
:1039D00075F8204610BD00BF60060020705F00082B
:1039E00010B5044C04480A46214602F067F8204608
:1039F00010BD00BF60060020845F000800207047F3
:103A000070B5FDF7DFFF114E114D0A243C20FFF782
:103A100003FE01224FF480413046FEF78BF900226D
:103A200040212846FEF786F93C20FFF7F5FD0122EC
:103A300040212846FEF77EF900224FF480413046AF
:103A4000FEF778F9013CE1D1204670BD0004004842
:103A500000140048002070470368B3F1A04F00D065
:103A6000704730B589B01C4C4FF4C05102200A2376
:103A7000032203910490002503A94FF0904007937F
:103A8000CDE90552FEF756F8E36C43F48053E36446
:103A9000E36C03F480530193019BA36DDB0018D406
:103AA000A36D43F08053A365A36D03F0805302938D
:103AB000029BFFF71BFFA36D23F08053A365002239
:103AC00011464320FFF7B2F94320FFF7E5F909B0AB
:103AD00030BDFFF70BFFF2E70010024000F57171F7
:103AE000D0F8040401F040BCC1EBC10300EB830338
:103AF000D0F80404D3F8082201F066BCC1EBC1037E
:103B000000EB8303D0F804049A6C01F09BBC00BF67
:103B1000D0F8040401F036BD10B504460121D0F8F8
:103B2000040401F019FDD4F80404BDE8104001F0CC
:103B3000EBBC00BF0268D2F8003E10B543F00103B1
:103B40000446D0F80404C2F8003E01F009FD236ADF
:103B500023B1034A136943F00603136110BD00BF8C
:103B600000ED00E00268D2F8003E23F0010310B53A
:103B7000C2F8003E036A044633B1064A136923F0D3
:103B800006031361FDF7D6FCD4F80404BDE8104029
:103B900001F0F0BC00ED00E0D0F8040401F002BD3B
:103BA000D0F8040401F0FCBCD0F8040401F0FCBC23
:103BB000D0F8040401F0FABC02780AB10020704782
:103BC00038B5154B4FF0A045C3F804040624C0F8DF
:103BD0009832022118465A61C3E90722C3E9092233
:103BE000C3E90B22C3E90054996100F0DBF878B90E
:103BF0008021094800F04CFF40220021064800F0D7
:103C000023FF80220121044800F01EFF002038BD60
:103C1000FDF78EFFECE700BF6008002008B5D0F884
:103C2000980200F095FA032896BF024B0220185C18
:103C300008BD00BFE05F000810B51C46D0F8980230
:103C40001346224600F0E0FD032896BF014B0220F8
:103C5000185C10BDE05F000808B5D0F8980200F0CD
:103C600007FE032896BF024B0220185C08BD00BF68
:103C7000E05F000808B5D0F8980200F06BFE03285A
:103C800096BF024B0220185C08BD00BFE05F000831
:103C900008B5D0F8980200F09FFE032896BF024BAB
:103CA0000220185C08BD00BFE05F00080A06D0F8DB
:103CB000983206D4C1EBC10103EB810191F8FE01FA
:103CC000704701F07F01C1EBC10103EB810191F865
:103CD0003E00704708B5D0F8980200F081FD032837
:103CE00096BF024B0220185C08BD00BFE05F0008D1
:103CF00008B5D0F8980200F00DFE032896BF024BDD
:103D00000220185C08BD00BFE05F000808B5D0F8CD
:103D1000980200F0DDFD032896BF024B0220185CDC
:103D200008BD00BFE05F000810B50446A1B101293D
:103D300011D10268D0F80404D2F8003E43F0010328
:103D4000C2F8003E01F00CFC236A23B10D4A13694E
:103D500043F00603136110BD036A33B1FDF7EAFBBC
:103D6000084A136923F0060313612268D4F8040497
:103D7000D2F8003E23F00103C2F8003EBDE8104037
:103D800001F0F8BB00ED00E000487047940100200E
:103D9000704700BFD0F898329B6A012B14BF0220F5
:103DA00000207047002800F0C8812DE9F04F90F8FE
:103DB000BD338DB0044603F0FF02002B00F0B88144
:103DC0004FF00309264684F8BD93206800F0DEFE1C
:103DD00056F8107B0FCE6D460FC50FCE0FC596E877
:103DE000030085E80300231D38460B930ECB00F03B
:103DF00071FE40F2011A0021206800F0CFFEA4F805
:103E000058A04FF0020AA4F87AA04FF0040AA4F8D0
:103E1000B2A04FF0050A00254FF001084FF4807B57
:103E20004FF4817E40F2031C4FF4827040F2051182
:103E30004FF48372A4F8CEA04FF0060A40F20713A5
:103E4000A4F89690A4F83CB0A4F874E04FF0070BE7
:103E50004FF0080EA4F890C0A4F8AC004FF0090C85
:103E60004FF48570A4F8C810A4F842500A2184F8D1
:103E70003F50C4E91155256584F85B50C4E91855D5
:103E8000E56684F87750C4E91F55C4F8885084F873
:103E90009350C4E92655C4F8A45084F8AF50C4E93F
:103EA0002D55C4F8C050A4F85E8084F8CB50A4F817
:103EB000E420A4F8EAA040F20B124FF4847AA4F8AC
:103EC0000031A4F81CA1A4F822E184F838C1A4F8B8
:103ED0003EC1A4F85401A4F85A11C4E93455C4F8F9
:103EE000DC5084F8E750C4E93B55C4F8F85084F836
:103EF0000351C4F80851C4F80C51C4F8145184F8A3
:103F00001F51C4F82451C4F82851C4F8305184F822
:103F1000398184F83B51C4F84051C4F84451C4F885
:103F20004C5184F85751C4F85C51A4F806B1C4F858
:103F30006051A4F8702140F20D124FF4867AA4F873
:103F4000A8214FF487720B230C20A4F88CA1A4F8AD
:103F5000C4214FF00D0A0E22A4F87631A4F8920184
:103F6000A4F8CA21C4F8685184F87351C4F8785190
:103F7000C4F87C51C4F8845184F88F51C4F894512A
:103F8000C4F89851C4F8A05184F8AB51C4F8B051AA
:103F9000C4F8B451C4F8BC5184F8C751C4F8CC512A
:103FA000C4F8D051C4F8D851A4F8FC5184F8FF519A
:103FB000C4F80452C4F80852C4F81052A4F8188285
:103FC00084F81B52A4F8AEA1C4F82052A4F8509271
:103FD0004FF00209A4F834924FF004092746A4F8E0
:103FE0006C924FF00509A4F888924FF00609C4F8C6
:103FF0002452C4F82C5284F83752C4F83C52C4F806
:104000004052C4F8485284F85352C4F85852C4F885
:104010005C52C4F8645284F86F52C4F87452C4F805
:104020007852C4F8805284F88B52C4F89052C4F885
:104030009452C4F89C52A4F8A49284F8A752C4F8ED
:10404000AC52C4F8B052C4F8B852A4F8C0B284F864
:10405000C352C4F8C852C4F8CC52C4F8D452A4F81D
:10406000DCE2A4F8F8C2A4F81413A4F83033A4F8DE
:104070004C03A4F8842384F8DF52C4F8E452A4F873
:1040800068A3C4F8E852C4F8F05284F8FB52C4F8AC
:104090000053C4F80453C4F80C5384F81753C4F8FD
:1040A0001C53C4F82053C4F8285384F83353C4F87D
:1040B0003853C4F83C53C4F8445384F84F53C4F8FD
:1040C0005453C4F85853C4F8605384F86B53C4F87D
:1040D0007053C4F87453C4F87C5384F88753C4F8FD
:1040E0008C53C4F8905357F810EBC4F898530FCF83
:1040F000EC46ACE80F000FCFACE80F0096E80300E9
:104100008CE803000B9B70460ECB00F05FFD636AEA
:1041100084F83850434584F8BD8314D0A36A012B3A
:104120000DD0206801F07AF800200DB0BDE8F08FC6
:1041300080F8BC23FFF790FC42E601207047204640
:1041400000F0BEFCEDE7204600F0A6FCE6E700BF6D
:1041500090F8BC33012B0ED010B50123044680F833
:10416000BC33006801F04EF8206800F007FD002025
:1041700084F8BC0310BD0220704700BF2DE9F04F4A
:10418000056887B004462846D5F8408001F084F8D9
:1041900010B107B0BDE8F08F0646206801F04AF87C
:1041A0000028F6D0206801F045F810F0020F2068D2
:1041B0001EBF436903F00203436101F03BF810F4B2
:1041C000002B206840F0C68101F034F810F4802FF5
:1041D000206840F0278101F02DF80028C0F29C8073
:1041E000206801F027F8000563D4206801F022F868
:1041F000020113D5226894F8F413536903F00063A5
:10420000536100295FD1536D0121C3F38303C4F8C7
:10421000F83384F8F4132046FFF786FD206801F098
:1042200009F8C30400F1AD80206801F003F810F430
:10423000005F206840F0848000F0FCFF10F0100F59
:10424000206811D0836923F0100383612E6AC6F3BE
:104250004343022B06F00F073ED0062B00F04682A8
:10426000836943F01003836100F0E4FF070700F166
:10427000C681206800F0DEFFC60200F1AA81206836
:1042800000F0D8FF850200F1AF81206800F0D2FF76
:10429000400000F1BE80206800F0CCFF41077FF5B0
:1042A00078AF23685D686A0711D45A682A435A6058
:1042B0006FE7D5F80838D9072AD42068436903F492
:1042C0000063436192E72046FFF734FCA6E72046EF
:1042D000FFF76EFC2368E8E747F6F0731E42BFD095
:1042E000C7EBC70704EB8707C6F30A16D7F808120F
:1042F0003246284600F00AFFD7F80812D7F81422F1
:10430000206831443244C7F80812C7F81422A7E7DE
:104310002046FFF70FFCD0E794F8F413D5F80428F3
:10432000012922F00102C5F8042800F0C0812046CE
:10433000FFF718FC2068436903F00043436150E72E
:1043400000F0AEFF2268D368032023F470534021AD
:10435000D360E0606161FDF7C3F8B84BB84A03442D
:10436000934200F287812268D36843F47053D3608C
:104370002046FFF7D1FB2068436903F400534361F3
:104380005AE705F500677B68206823F001031021D8
:104390007B6000F0DFFCD4F804C0BCF1000F15D046
:1043A00005F510634FF67F3199601A6822F4001208
:1043B0001A60C3F80812D3F80022013622F4001262
:1043C0006645C3F8002203F12003EDD1FB69226B9F
:1043D00043F00113FB61002A00F05781D7F88430C5
:1043E00043F00B03C7F884307B6C43F00B037B6412
:1043F000D5F80038206823F4FE63C5F8003804F5CA
:10440000717100F069FF2068436903F480534361D0
:104410000BE72046FFF7C8FB2068436903F08043A1
:10442000436139E700F012FF8146002800F07481F3
:1044300005F51063CDE901562068A2464FF0000B48
:104440001D4607E05FEA59090BF1010B0AF11C0A4E
:1044500000F0ED8019F0010FF4D05FFA8BF84146BF
:1044600000F006FF0646F00700F1EE80310703D5A5
:1044700005EB4B1308229A60F20603D505EB4B13AC
:1044800010229A60730603D505EB4B1340229A6005
:10449000B70703D505EB4B1302229A60276836064F
:1044A0003846CFD5DAE914138B42CBD807F5106222
:1044B00002EB4B121046DAF844200390CE1A9642D3
:1044C00080690497B44628BF944680B20CF1030C6F
:1044D000B0EB9C0F2FD98B4230D279B3CDF814B00A
:1044E000DAF84810DDF80CB007E0DAF850609E42C8
:1044F00040F22181DAF84420F61A964228BF164687
:10450000B3B24246384600F0F1FDDBF81820DAF885
:104510004810DAF854303144334492B20336B2EBE7
:10452000960FCAF84810CAF85430DED8DDF814B037
:104530002768DAF850109942384683D8049B012244
:10454000D3F8341802FA0BF221EA02023846C3F813
:10455000342877E700F072FE0746002800F0D98083
:1045600005F53063CDE9015620684FF0000B1D467C
:1045700003E07F080BF1010B5CD0FE07F9D55FFA71
:104580008BFA514600F06AFE10F0010F814645D0CB
:104590002C4B05EB4B1601229845B26000F0080247
:1045A0007CD1A968080440F195804FF40041B160C6
:1045B00052B1AA68130444BF4FF40042B2602046CF
:1045C000FFF78CFA0822B26019F0100F20D1206892
:1045D000CFE720465FFA8BF1FFF7E2FA20684369E4
:1045E00003F4801343614BE620465FFA8BF1FFF73B
:1045F000D3FA2068436903F40013436146E620467A
:10460000FFF786FA2068436903F00803436131E647
:1046100005EB4B13102220689A60AAE710F0080FF0
:10462000D2D0084B984505EB4B16C8D1C1E7DDE960
:104630000156D0E5DDE90156C6E500BF405327FF2E
:10464000FF340C000A31544F019B0BF00F00D3F8DC
:104650003418012202FA00F021EA000105EB4B12A6
:10466000C3F834181346012241469A602046FFF7EA
:1046700045FAFBE64D4B4E49226803448B421DD858
:10468000D36843F46053D36072E67B6943F00B0355
:104690007B613B6943F00B033B61A9E65146204631
:1046A0000392FFF721FA039A002A88D18CE70021B0
:1046B00084F8F4132046FFF737FB3BE6A0F57403BC
:1046C0003C49A3F510538B4229D8D36843F4505387
:1046D000D3604DE6A9680392890644BF2021B160EA
:1046E00020465146FFF700FA039A61E7082204F5D5
:1046F00071712846C7EBC70700F008FD04EB87027D
:10470000C6F30A13D2F8141220680B44C2F814320C
:10471000A6E58346206857E5834620685BE5A0F15F
:1047200083732549A3F5E7438B4208D8D36843F444
:104730004053D3601CE6DDF814B02768FEE61F4B3B
:104740001F4903448B4204D8D36843F43053D360E9
:104750000EE61C4B1C4903448B4204D8D36843F437
:104760002053D36004E6194B194903448B4204D803
:10477000D36843F41053D360FAE5A0F1B773154939
:10478000A3F558538B4204D8D36843F40053D36045
:10479000EEE5114B114903448B42D36894BF43F4B7
:1047A000E05343F4C053D360E2E500BF401E1BFF5B
:1047B0003F420F007F4F12001FD6130060B6E5FE88
:1047C0005FE3160000D3CEFE3F771B00C05BB3FE55
:1047D000BF9121001F753800E05459FEDF9C410055
:1047E00090F8BC23012A0DD010B50446012284F8AC
:1047F000381080F8BC23006800F0F4FC002084F836
:10480000BC0310BD02207047F8B501F00F05C5EBE1
:10481000C504C5EBC50609064FEA840400EB86060D
:104820001ED404F5FE740027011986F8FD714C783A
:104830000D708A60CB7004B1CD80022B04BF0023C1
:104840000B7190F8BC33012B10D00123044680F883
:10485000BC33006800F090FA002084F8BC03F8BD77
:104860003C340127011986F83D70E0E70220F8BDCD
:1048700001F00F0238B50906C2EBC203C2EBC20455
:104880004FEA830300EB840415D403F5FE73C118CB
:10489000002584F8FD510A7090F8BC33012B14D028
:1048A0000123044680F8BC33006800F0A9FA002018
:1048B00084F8BC0338BD3C33C118012584F83D5051
:1048C0000A7090F8BC33012BEAD1022038BD00BF3A
:1048D00070B501F00F06C6EBC60400EB84041C257E
:1048E00005FB0605C4F808220022C4F8103284F83B
:1048F000FC61C4F8142284F8FD2105F5FE710068FE
:104900001EB100F0B1FA002070BD00F07FFB002066
:1049100070BD00BF70B501F00F06C6EBC60400EB1A
:1049200084041C2505FB0605A264236500220123DF
:1049300084F83C60626584F83D3005F13C01006814
:104940001EB100F091FA002070BD00F05FFB002066
:1049500070BD00BF38B5436801F00F059D421FD8F8
:104960000B061FD4C1EBC1031C2404FB010100EBA7
:104970008303002201F5FE7183F8FD2101230D70F0
:104980008B7090F8BC239A421ED0044680F8BC334A
:10499000006800F0CFFBCDB1002084F8BC0338BD27
:1049A000012038BDC5EBC5031C2101FB050100EB4F
:1049B000830301223C3183F83D2001230D708B706D
:1049C00090F8BC239A42E0D1022038BD04F5717101
:1049D000206800F081FCDFE738B5436801F00F0282
:1049E0009A4221D8C2EBC203C2EBC20409064FEAC5
:1049F000830300EB840419D403F5FE73C11800256A
:104A000084F8FD5100250A708D7090F8BC33012B9D
:104A100018D00446012380F8BC33006800F0B6FBD0
:104A200084F8BC53284638BD012038BD3C33C1183A
:104A3000012584F83D5000250A708D7090F8BC3334
:104A4000012BE6D1022038BD30B4056812046C6A2F
:104A5000C1B1AB6A013904EB13440BD0002303F15D
:104A6000400005EB800001334068DBB28B4204EB71
:104A70001044F4D3403105EB810114434C60002015
:104A800030BC70471443AC62002030BC704700BF9C
:104A9000036800205962704702680123C0F8FC33A4
:104AA0009369014643F00063002081F8F4039361A9
:104AB000536D43F0805343F003035365704700BFC9
:104AC00002680123C0F80034936B43F4003393630E
:104AD0000020704784B030B4089D03AC012D84E8F9
:104AE0000E0026D1836B0F9A23F480338363C3684F
:104AF00023F4840323F04003C360C368012A23F432
:104B00004013C36032D01C4B01E0013B0DD0026961
:104B1000002AFADA0269184B42F00102026101E050
:104B2000013B02D00269D107FAD430BC002004B0A6
:104B30007047C268104B42F04002C26001E0013B86
:104B40000DD00269002AFADA02690B4B42F0010229
:104B5000026101E0013B02D00269D207FAD430BC05
:104B60004FF48033836304B000207047C36843F47C
:104B70008013C360C7E700BF400D0300024600205A
:104B8000936843F001039360704700BF0246002022
:104B9000936823F001039360704700BF08B5C368B2
:104BA000012923F0C043C3600BD041B9C36843F06F
:104BB0008043C3603220FEF72FFD002008BD012096
:104BC00008BDC36843F00053C360F3E784B02DE928
:104BD000F04107AD85E80E000024C0F80441C0F89C
:104BE0000841C0F80C41C0F81041C0F81441C0F8A9
:104BF0001841C0F81C41C0F82041C0F82441C0F859
:104C00002841C0F82C41C0F83041C0F83441C0F808
:104C10003841C0F83C41836B119F43F400138C462C
:104C200083635FB9836B23F400138363036843F0EA
:104C300040030360036843F0800303600023C0F86F
:104C4000003ED0F80038C0F80038D0F800283F4BBC
:104C500042F003024FF48461C0F8002800F50066BA
:104C6000016101E0013B02D002699106FAD41023F0
:104C70000361364B01E0013B02D00269D206FAD44F
:104C8000002232617261F261BCF1000F19D014464A
:104C900000F510634FF0904E4FF000684FF67F35EF
:104CA00007E01C60013262451C619D6003F1200336
:104CB0002BD019680029F4DA002A41D0C3F800E0AB
:104CC000F0E73269224B0D9922F4807232610024A0
:104CD0006FF0804284614261826942F01002826119
:104CE00082691343836119B1836943F008038361C7
:104CF000012F05D1836943F0804343F004038361AE
:104D0000BDE8F041002004B0704700210D4600F5D9
:104D100030634FF0904E4FF000684FF67F3C08E054
:104D20001D60013191421D61C3F808C003F12003E9
:104D3000C7D01C68002CF3DA29B1C3F800E0F0E713
:104D4000C3F80080AEE7C3F80080EAE7400D030037
:104D500000383C80890141F020010161054A01E0F1
:104D6000013A05D0036913F02003F9D118467047C2
:104D700003207047400D030030B40A784D7802F0EC
:104D80000F040123012D03FA04F300EB421400F594
:104D9000006019D0C26942EA0343C361D4F8003B02
:104DA0001B040ED48A68C878D4F8001BC2F30A0228
:104DB00042F0805343F4004343EA80430B43C4F87A
:104DC000003B002030BC7047C5692B43C361D4F859
:104DD00000391804F5D48B68C878D4F80019C3F3E7
:104DE0000A0343F0805343F4004343EA804343EA19
:104DF00082520A43C4F80029002030BC704700BF2B
:104E000010B40A78497802F00F0400EB421200F562
:104E100000600123012903FA04F3C46B10D06FEA88
:104E200003431C40C463C4690D492340C361D2F8E5
:104E3000003B5DF8044B19400020C2F8001B70478E
:104E4000DB431C40C463C46906492340C361D2F8F4
:104E500000395DF8044B19400020C2F80019704772
:104E60000078F3EF007833EC2DE9F0434F780A78BF
:104E70004B69CE78012F00EB421541D005F5306427
:104E80008A682169C90CC9042161216921F0FF5197
:104E900021F4C01121614BB35B4927691344013BE5
:104EA000B3FBF2F301EAC34139439BB2216102FB38
:104EB00003F22369C2F312021A432261012E0CD1BC
:104EC000D0F8083813F4807FD5F8003B0CBF43F0CE
:104ED000005343F08053C5F8003BD5F8003B43F046
:104EE0000443C5F8003B0020BDE8F0832369C2F30A
:104EF00012021A432261236943F400232361DDE790
:104F000005F5106493BB276927F0FF5727F4C017F6
:104F10002761276947F4002727612769FF0CFF04F1
:104F2000012E276156D1D0F80848E40564D4D5F89D
:104F3000004944F00054C5F80049D5F80049C96853
:104F40009BB2033344F004449B08C5F80049CAD01F
:104F500000EB023000F5805001EB830351F8044B65
:104F600004609942FAD10020BDE8F083D4F810E043
:104F7000D1F80890DFF890C04FEADE4E4FEACE4EEF
:104F8000C4F810E0D4F8108028F0FF5828F4C018B6
:104F9000C4F81080D4F8108009EB030E0EF1FF3E28
:104FA000BEFBF9FE0CEACE4C4CEA080CC4F810C06B
:104FB000D4F810E0C3F3120C4CEA0E0C012EC4F826
:104FC00010C010D0D0F8343802F00F0297401F43C1
:104FD000C0F83478D5F8003943F00443C5F80039F7
:104FE0000020BDE8F083266926F0C04626612669C8
:104FF00046F00056266196E7D5F8004944F0805403
:10500000C5F8004999E700BF0000F81FF0B44B78DD
:105010000A784D69012B00EB421421D004F530636E
:1050200018698A68C00CC0041861186920F0FF5024
:1050300020F4C01018618DB9196941F4002119617B
:105040001969C2F312020A431A61D4F8003B43F013
:105050000443C4F8003B0020F0BC70474A61EBE712
:1050600004F510634DB31E698F68F60CF6041E61DB
:105070001E6926F0FF5626F4C016AF421E612BD2E1
:105080001D694F6145F400251D611D69C7F31201BB
:105090002943196147B102F00F01D0F834380122D9
:1050A0008A401A43C0F83428D4F8003943F0044346
:1050B000C4F800390020F0BC70471A6922F0FF5292
:1050C00022F4C0121A611A6942F400221A611A69A4
:1050D000D20CD2041A61E7E7196941F40021196181
:1050E0001969C5F312050D431D61D4E703339B080D
:1050F0000AD000EB023000F5805001EB830351F839
:10510000042B02608B42FAD10020704703329208D0
:105110000DD010B401EB820200F5805408462368DC
:1051200040F8043B8242FAD15DF8044B70470846D0
:10513000704700BF4A780B78012A00EB431012D069
:10514000D0F8002B002A06DB2BB1D0F8003B23F06F
:105150008043C0F8003BD0F8003B43F40013C0F894
:10516000003B00207047D0F80029002A06DB2BB155
:10517000D0F8003923F08043C0F80039D0F8003966
:1051800043F40013C0F8003900207047CB780A7848
:105190004978023B0129DBB200EB421011D0D0F874
:1051A000002B012B22F40012C0F8002B01D90020A3
:1051B0007047D0F8003B43F08053C0F8003B00201C
:1051C0007047D0F80029012B22F40012C0F8002902
:1051D000EDD8D0F8003943F08053C0F800390020F2
:1051E000704700BFD0F8003823F4FE63C0F80038E1
:1051F000D0F80038090101F4FE611943C0F8001825
:105200000020704700F5006208B5536823F00203E0
:1052100003205360FEF700FA002008BD00F500628D
:1052200008B5536843F0020303205360FEF7F4F916
:10523000002008BD4269806910407047D0F81838D6
:1052400000F50060C0691840000C7047D0F81838AD
:1052500000F50060C069184080B2704700EB411152
:1052600000F50060D1F8082B40691040704700BF7E
:1052700010B4D0F81048D0F8343800EB411001F0E9
:105280000F0100F51060CB40DB01DBB280682343E7
:1052900018405DF8044B7047406900F0010070470A
:1052A000D0F8003923F4FF6323F0070300F5006210
:1052B000C0F80039936803F00603042B05D1D0F839
:1052C000003943F00303C0F80039536843F4807396
:1052D00053600020704700BF00F530630020186164
:1052E0001A6942F400221A611A6942F018021A611E
:1052F0001A6942F0C0421A61704700BF88B108B510
:10530000D0F88C3213B10023C0F88C3209B1C0F848
:1053100088120123027080F87432FEF74DFC0020E1
:1053200008BD0220704700BF19B1C0F88C120020E0
:1053300070470220704700BF08B5FEF76FFC0020E1
:1053400008BD00BF08B5D0F88C321BB11B68984768
:1053500000B908BD022008BD08B5D0F88C325B68E2
:105360009847002008BD00BF38B5044600F52075F9
:10537000284600F083FB94F88012B4F88632C4F813
:105380007032012201F01F039342C4F86C2215D041
:105390000ED3022B06D001F080012046FEF76AFCF6
:1053A000002038BD2946204600F0D4FA002038BD40
:1053B0002946204600F006F9002038BD294620463F
:1053C00000F09CFA002038BD70B5054641B9D0F810
:1053D0006C32032B0FD0052B0C462ED0002070BD55
:1053E000D0F88C329B69C3B190F87422032A14D18F
:1053F0009847002070BD1646D0F84C31D0F85021A7
:1054000093420CD99B1A9A42C0F84C318CBF9AB285
:1054100092B2314600F09EFBE0E7022070BDD0F86A
:105420008C321B6923B190F87422032A00D198476B
:10543000284600F097FB002070BDFEF71BFC2046BD
:1054400070BD00BF70B5044689B91346D0F86C2210
:10545000022A1AD032F0040302D18021FEF70AFC9E
:1054600094F87832012B4FF000000BD070BDD0F8CB
:105470008C325B696BB390F87422032A29D1984768
:10548000002070BD84F8780270BDD0E908629642B1
:1054900021D8C369B3FBF2F502FB15350DB99A4269
:1054A00027D9D4F88C32DB682BB194F87422032A04
:1054B00001D12046984780212046FEF7DBFB20469D
:1054C00000F05CFB94F87832012B4FF00000CDD156
:1054D000D8E7022070BDB21A0D460262194692B298
:1054E00000F020FB2B462A4629462046FEF70EFCFC
:1054F000B6E7D0F870229342D3D22A4600F012FBCE
:10550000C4F87052EEE700BF70B500220446402395
:105510001E4611460125FEF78FFB33468021C4F855
:105520004451C4F8506120460022FEF785FBD4F8B0
:105530009032A5610021666284F87452C4F86C123E
:105540006160C4F87C1223B1D4F88C3220465B68C9
:105550009847002070BD00BF01740020704700BF55
:1055600090F8742280F87522042380F874320020A9
:10557000704700BF0346002093F8752283F8742219
:10558000704700BF90F87422032A01D000207047B2
:1055900008B5D0F88C32DB6903B19847002008BD0C
:1055A00000207047002070470020704708B5012197
:1055B000D0F88C2280F8741252680179904700204C
:1055C00008BD00BF30B50B7803F06003202B83B01B
:1055D0000D46044628D0402B26D053B180212046CA
:1055E000FEF748FB20460021FEF744FB002003B0F5
:1055F00030BD4B78092BF1D801A252F823F000BF3F
:105600007D560008AB560008DD550008C35600085B
:10561000DD550008CB56000807570008DD55000887
:10562000555700083B560008D4F88C3229469B6831
:1056300020469847002003B030BD8978AE4D01293F
:105640002970CBD890F87432022B00F02381032B01
:1056500040F01481002900F039814168012909D006
:10566000C9B2FFF779FE297861602046FFF76AFE2C
:105670000228B3D0204600F075FAB7E790F87432EC
:10568000013B022B4FF00302A8D8CB88022BA5D1F7
:10569000D0F87C320121C16003B1C260022204F162
:1056A0000C01204600F030FAA0E790F87432013B7C
:1056B000022B93D84B88012B98D10023C4F87C325D
:1056C000D8E74B88012B91D1F8E78B88002B85D147
:1056D000CB88002B82D14D887F2D3FF67FAF90F88D
:1056E0007432032B3FF47AAFE9B280F87612FEF7FA
:1056F000F1FA204600F036FA002D00F0F180022386
:1057000084F8743272E74A88130A013B0E2B3FF685
:1057100065AF01A151F823F0FD570008E5570008D7
:105720000D580008DD550008DD550008B557000884
:10573000CB570008DD550008DD550008DD55000891
:10574000DD550008DD550008DD550008DD55000871
:105750007B570008CA88012A7FF440AF90F8743262
:10576000002B3FF43BAF022B40F2A280032B7FF4CF
:1057700035AF011D00F0C8F938E7D0F88832007C59
:10578000DB690DF106019847BDF80630EA886BB178
:10579000002A3FF46FAF934228BF13461A460146D2
:1057A0002046ADF8063000F0AFF9EA88002A7FF411
:1057B0001DAF5FE7037C002B7FF410AFD0F88C3275
:1057C0000DF106005B6B9847DEE7037C002B7FF44E
:1057D00005AFD0F88C320DF106001B6B98470723FC
:1057E0004370D1E7027CD0F88C32002A67D19B6AE3
:1057F0000DF10600984702234370C5E7D0F88832C0
:10580000007C1B680DF106019847BDE7D1B2052960
:105810006AD8DFE801F02B231B130B03D0F8883282
:10582000007C9B690DF106019847ADE7D0F88832FE
:10583000007C5B690DF106019847A5E7D0F8883236
:10584000007C1B690DF1060198479DE7D0F888326E
:10585000007CDB680DF10601984795E7D0F88832A7
:10586000007C9B680DF1060198478DE7D0F88832DF
:10587000007C5B680DF10601984785E78021FEF703
:10588000F9F900212046FEF7F5F929782046FFF7BF
:1058900063FDABE600293FF4EDAE01210323416037
:1058A00080F87432FFF74EFD02287FF4E3AE95E6F0
:1058B0000146002341F8083F00F026F996E6DB6A2E
:1058C0000DF106009847022343705DE70223416013
:1058D00080F87432FFF740FD204600F043F985E67A
:1058E000012384F8743281E6D0F88C320DF106027F
:1058F0009B6B984748E700BFEC01002038B50B7858
:1059000003F06003202B0D4604460CD0402B0AD038
:105910004BB180212046FEF7ADF920460021FEF76D
:10592000A9F9002038BD94F87432013B022BF0D85D
:105930002B79012BEDD8D4F88C3229469B68204670
:105940009847EB88002BECD10028EAD1204600F0E4
:1059500009F9E6E770B50B7803F06003202B0446E5
:105960000CD0402B0AD083B180212046FEF782F96B
:1059700020460021FEF77EF9002070BDD4F88C325D
:1059800020469B689847002070BD4B788A88012B81
:10599000D5B23DD014D3032BE6D190F87432022B4C
:1059A00045D0032BE0D14B8833B96A0604D0CB88AD
:1059B00013B92946FEF75EF9204600F0D3F8DBE77D
:1059C00090F87432022B3CD0032BCDD105F00F039D
:1059D00003EB8303120600EB830341D4D3F8443175
:1059E000002BC1D005F07F03142606FB030606F545
:1059F000A07633B129462046FEF758F900283AD060
:105A00000123336031462046022200F07DF8B3E7DF
:105A100090F87432022B0AD0032BA5D14B88002BAF
:105A2000AAD16E06C8D02946FEF732F9C4E76B0644
:105A30009AD02946FEF71EF920468021FEF71AF972
:105A40009AE7680690D111064CBF04F1140104F5E1
:105A5000A071002320460B60022200F055F88BE76E
:105A60009B69002B80D005F07F035E1C06EB860649
:105A700000EB8606BDE73060C4E700BF0B7803701B
:105A80004B784370CA788B7803EB022343804A79C2
:105A90000B7903EB02238380CA798B7903EB022312
:105AA000C380704710B580210446FEF7E3F8204616
:105AB0000021BDE81040FEF7DDB800BF00B3037859
:105AC00030B4F3B10446002314F8015F0133DBB2B4
:105AD000002DF9D15B000233032413800B704C704E
:105AE00004785CB1022300255A1CD2B2CC548D54E8
:105AF00010F8014F0233DBB2002CF5D130BC7047F7
:105B000070470223E8E700BF38B5134602250A466E
:105B1000C0E90733C0F86C520021FEF7E9F8002015
:105B200038BD00BF08B513460A460021FEF7E0F86D
:105B3000002008BD38B5134603250A46C0F8483191
:105B4000C0F84C31C0F86C520021FEF7DFF800209D
:105B500038BD00BF08B513460A460021FEF7D6F847
:105B6000002008BD08B504220023C0F86C221946A5
:105B70001A46FEF7BDF8002008BD00BF08B5052293
:105B80000023C0F86C2219461A46FEF7BFF8002021
:105B900008BD00BF2923038000487047D8000020BB
:105BA0002923038000487047040100202923038033
:105BB0000048704748010020D0F89032002083F858
:105BC0005000704710B5D0F89042E36C012B07D11C
:105BD000D0F894326178DB68207898470023E3643A
:105BE000002010BD0A230380004870473C010020BC
:105BF00038B5D0F89052D0F894326978DB68044612
:105C0000287898472A46204640230121FEF77EF84F
:105C1000002038BD10B50B78D0F8904282B0002239
:105C200013F06003ADF8062022D0202B04D0FFF73C
:105C300039FF022002B010BD4B78023B092BF6D889
:105C400001A252F823F000BF2D5D00081F5D00087F
:105C50002F5C00082F5C00082F5C00082F5C0008F8
:105C60002F5C00080F5D0008055D0008FD5C000862
:105C70004B780B2BDBD801A252F823F0E75C00082D
:105C80002F5C00082F5C00082F5C00082F5C0008C8
:105C90002F5C0008CD5C00082F5C00082F5C00081A
:105CA0002F5C0008BD5C0008AD5C000890F8743201
:105CB000032BBCD18B78A3640020BBE790F874322F
:105CC000032BB4D104F14801012207E04B881B0AE1
:105CD000222B32D0212B38D000210A46FFF714FFA7
:105CE000002002B010BD90F87432032B9FD1022225
:105CF0000DF10601FFF708FF00209BE78B78236476
:105D0000002097E74B881B0A6364002092E7012379
:105D1000CA88E3642146FFF70DFF00208AE704F1FB
:105D200040010122FFF7F0FE002083E704F1440167
:105D30000122FFF7E9FE00207CE7CA88D0F8943200
:105D4000402A28BF40221968C8E7CA880249092AA0
:105D500028BF0922C2E700BF3001002038B5044641
:105D600081210025FDF778FFE56220460121FDF73E
:105D700073FFD4F89032C4F858514BB1D4F8943230
:105D80009B689847D4F89002FEF702F8C4F8905246
:105D9000002038BDF8B504460125402303228121A7
:105DA000FDF74AFF294640230322E5622046FDF71E
:105DB00043FFC4F858515420FDF7E6FFC4F89002A1
:105DC00078B1D4F89432002706465B6880F85070AA
:105DD00098473246294620464023FDF797FF38462C
:105DE000F8BD2846F8BD00BF38B590F87452032DB1
:105DF00001D0002038BDD0F8905295F850400CB139
:105E0000012038BD13460A46012185F85010812132
:105E1000FDF76EFF204638BD19B1C0F8941200207E
:105E200070470220704700BFDFF834D0002103E044
:105E30000C4B5B58435004310B480C4B42189A42B0
:105E4000F6D30B4A02E0002342F8043B094B9A4286
:105E5000F9D3FDF77DFB00F011F8FBF7C3FBFEE77C
:105E600000000A20006000080000002078010020E7
:105E700078010020680C0020FEE7000070B50D4E90
:105E80000D4CA41BA4100025A54209D10B4E0C4CAF
:105E900000F020F8A41BA4100025A54205D170BD78
:105EA00056F8253098470135EEE756F825309847E3
:105EB0000135F2E7F05F0008F05F0008F05F0008CE
:105EC000F45F000802440346934200D1704703F890
:105ED000011BF9E7F8B500BFF8BC08BC9E46704747
:105EE000F8B500BFF8BC08BC9E4670470000000033
:105EF00054696D6572203720696E746572757074AF
:105F00000A00000075736220696E746572757074A2
:105F10000A00000001040208001010100410101004
:105F20000210101008000000000000000000000037
:105F3000010203040607080900000000010203042F
:105F4000A0860100400D0300801A060000350C00F9
:105F500040420F0080841E0000093D0000127A00BC
:105F60000024F40000366E010048E801006CDC02F9
:105F7000437573746F6D2048494420436F6E6669A2
:105F800067000000437573746F6D204849442049D1
:105F90006E746572666163650000000053544D695C
:105FA00063726F656C656374726F6E696373000012
:105FB00053544D333220437573746F6D2048756DA3
:105FC000616E20696E746572666163650000000031
:105FD000303030303030303030303141000000006F
:085FE0000002010200000000B4
:085FE80048A2FF7F0100000048
:085FF000E501000800000000BB
:085FF800C101000800000000D7
:106000003000000000093D004D39000859390008F2
:10601000713900088D390008A9390008C539000810
:10602000E139000865390008050F0C00010710026E
:1060300002000000120101020000004083045057DA
:106040000002010203010000040309040600FF0925
:1060500001A10119012940150026FF00750895408E
:10606000810219012940750895409102C000000085
:106070000000000000000000000000000000000020
:106080000000000000000000000000004C000020A4
:10609000FD390008553A0008013A0008955D0008EE
:1060A0005D5D0008155C000800000000C55B00088D
:1060B000B95B0008F15B0008000000000000000070
:1060C00000000000A15B0008955B0008AD5B0008C4
:1060D000E55B00080000000009022900010100C082
:1060E000320904000002030000000921110100012F
:1060F0002240000705810340000507050103400019
:106100000500000009022900010100C03209040055
:1061100000020300000009211101000122400007D4
:10612000058103400005070501034000050000004C
:106130000921110100012240000000000A060002AE
:10614000000000400100000009022900010100C018
:1061500032090400000203000000092111010001BE
:1061600022400007058103400005070501034000A8
:08617000050000000000000022
:0400000508005E2968
:00000001FF
