ARM GAS  /tmp/cc9Z61bO.s 			page 1


   1              		.cpu cortex-m4
   2              		.eabi_attribute 27, 1
   3              		.eabi_attribute 28, 1
   4              		.eabi_attribute 20, 1
   5              		.eabi_attribute 21, 1
   6              		.eabi_attribute 23, 3
   7              		.eabi_attribute 24, 1
   8              		.eabi_attribute 25, 1
   9              		.eabi_attribute 26, 1
  10              		.eabi_attribute 30, 2
  11              		.eabi_attribute 34, 1
  12              		.eabi_attribute 18, 4
  13              		.file	"usb_device.c"
  14              		.text
  15              	.Ltext0:
  16              		.cfi_sections	.debug_frame
  17              		.section	.text.MX_USB_DEVICE_Init,"ax",%progbits
  18              		.align	1
  19              		.p2align 2,,3
  20              		.global	MX_USB_DEVICE_Init
  21              		.syntax unified
  22              		.thumb
  23              		.thumb_func
  24              		.fpu fpv4-sp-d16
  26              	MX_USB_DEVICE_Init:
  27              	.LFB126:
  28              		.file 1 "USB_DEVICE/App/usb_device.c"
   1:USB_DEVICE/App/usb_device.c **** /**
   2:USB_DEVICE/App/usb_device.c ****   ******************************************************************************
   3:USB_DEVICE/App/usb_device.c ****   * @file           : usb_device.c
   4:USB_DEVICE/App/usb_device.c ****   * @version        : v2.0_Cube
   5:USB_DEVICE/App/usb_device.c ****   * @brief          : This file implements the USB Device
   6:USB_DEVICE/App/usb_device.c ****   ******************************************************************************
   7:USB_DEVICE/App/usb_device.c ****   * This notice applies to any and all portions of this file
   8:USB_DEVICE/App/usb_device.c ****   * that are not between comment pairs USER CODE BEGIN and
   9:USB_DEVICE/App/usb_device.c ****   * USER CODE END. Other portions of this file, whether 
  10:USB_DEVICE/App/usb_device.c ****   * inserted by the user or by software development tools
  11:USB_DEVICE/App/usb_device.c ****   * are owned by their respective copyright owners.
  12:USB_DEVICE/App/usb_device.c ****   *
  13:USB_DEVICE/App/usb_device.c ****   * Copyright (c) 2018 STMicroelectronics International N.V. 
  14:USB_DEVICE/App/usb_device.c ****   * All rights reserved.
  15:USB_DEVICE/App/usb_device.c ****   *
  16:USB_DEVICE/App/usb_device.c ****   * Redistribution and use in source and binary forms, with or without 
  17:USB_DEVICE/App/usb_device.c ****   * modification, are permitted, provided that the following conditions are met:
  18:USB_DEVICE/App/usb_device.c ****   *
  19:USB_DEVICE/App/usb_device.c ****   * 1. Redistribution of source code must retain the above copyright notice, 
  20:USB_DEVICE/App/usb_device.c ****   *    this list of conditions and the following disclaimer.
  21:USB_DEVICE/App/usb_device.c ****   * 2. Redistributions in binary form must reproduce the above copyright notice,
  22:USB_DEVICE/App/usb_device.c ****   *    this list of conditions and the following disclaimer in the documentation
  23:USB_DEVICE/App/usb_device.c ****   *    and/or other materials provided with the distribution.
  24:USB_DEVICE/App/usb_device.c ****   * 3. Neither the name of STMicroelectronics nor the names of other 
  25:USB_DEVICE/App/usb_device.c ****   *    contributors to this software may be used to endorse or promote products 
  26:USB_DEVICE/App/usb_device.c ****   *    derived from this software without specific written permission.
  27:USB_DEVICE/App/usb_device.c ****   * 4. This software, including modifications and/or derivative works of this 
  28:USB_DEVICE/App/usb_device.c ****   *    software, must execute solely and exclusively on microcontroller or
  29:USB_DEVICE/App/usb_device.c ****   *    microprocessor devices manufactured by or for STMicroelectronics.
  30:USB_DEVICE/App/usb_device.c ****   * 5. Redistribution and use of this software other than as permitted under 
ARM GAS  /tmp/cc9Z61bO.s 			page 2


  31:USB_DEVICE/App/usb_device.c ****   *    this license is void and will automatically terminate your rights under 
  32:USB_DEVICE/App/usb_device.c ****   *    this license. 
  33:USB_DEVICE/App/usb_device.c ****   *
  34:USB_DEVICE/App/usb_device.c ****   * THIS SOFTWARE IS PROVIDED BY STMICROELECTRONICS AND CONTRIBUTORS "AS IS" 
  35:USB_DEVICE/App/usb_device.c ****   * AND ANY EXPRESS, IMPLIED OR STATUTORY WARRANTIES, INCLUDING, BUT NOT 
  36:USB_DEVICE/App/usb_device.c ****   * LIMITED TO, THE IMPLIED WARRANTIES OF MERCHANTABILITY, FITNESS FOR A 
  37:USB_DEVICE/App/usb_device.c ****   * PARTICULAR PURPOSE AND NON-INFRINGEMENT OF THIRD PARTY INTELLECTUAL PROPERTY
  38:USB_DEVICE/App/usb_device.c ****   * RIGHTS ARE DISCLAIMED TO THE FULLEST EXTENT PERMITTED BY LAW. IN NO EVENT 
  39:USB_DEVICE/App/usb_device.c ****   * SHALL STMICROELECTRONICS OR CONTRIBUTORS BE LIABLE FOR ANY DIRECT, INDIRECT,
  40:USB_DEVICE/App/usb_device.c ****   * INCIDENTAL, SPECIAL, EXEMPLARY, OR CONSEQUENTIAL DAMAGES (INCLUDING, BUT NOT
  41:USB_DEVICE/App/usb_device.c ****   * LIMITED TO, PROCUREMENT OF SUBSTITUTE GOODS OR SERVICES; LOSS OF USE, DATA, 
  42:USB_DEVICE/App/usb_device.c ****   * OR PROFITS; OR BUSINESS INTERRUPTION) HOWEVER CAUSED AND ON ANY THEORY OF 
  43:USB_DEVICE/App/usb_device.c ****   * LIABILITY, WHETHER IN CONTRACT, STRICT LIABILITY, OR TORT (INCLUDING 
  44:USB_DEVICE/App/usb_device.c ****   * NEGLIGENCE OR OTHERWISE) ARISING IN ANY WAY OUT OF THE USE OF THIS SOFTWARE,
  45:USB_DEVICE/App/usb_device.c ****   * EVEN IF ADVISED OF THE POSSIBILITY OF SUCH DAMAGE.
  46:USB_DEVICE/App/usb_device.c ****   *
  47:USB_DEVICE/App/usb_device.c ****   ******************************************************************************
  48:USB_DEVICE/App/usb_device.c ****   */
  49:USB_DEVICE/App/usb_device.c **** 
  50:USB_DEVICE/App/usb_device.c **** /* Includes ------------------------------------------------------------------*/
  51:USB_DEVICE/App/usb_device.c **** 
  52:USB_DEVICE/App/usb_device.c **** #include "usb_device.h"
  53:USB_DEVICE/App/usb_device.c **** #include "usbd_core.h"
  54:USB_DEVICE/App/usb_device.c **** #include "usbd_desc.h"
  55:USB_DEVICE/App/usb_device.c **** #include "usbd_customhid.h"
  56:USB_DEVICE/App/usb_device.c **** #include "usbd_custom_hid_if.h"
  57:USB_DEVICE/App/usb_device.c **** 
  58:USB_DEVICE/App/usb_device.c **** /* USER CODE BEGIN Includes */
  59:USB_DEVICE/App/usb_device.c **** 
  60:USB_DEVICE/App/usb_device.c **** /* USER CODE END Includes */
  61:USB_DEVICE/App/usb_device.c **** 
  62:USB_DEVICE/App/usb_device.c **** /* USER CODE BEGIN PV */
  63:USB_DEVICE/App/usb_device.c **** /* Private variables ---------------------------------------------------------*/
  64:USB_DEVICE/App/usb_device.c **** 
  65:USB_DEVICE/App/usb_device.c **** /* USER CODE END PV */
  66:USB_DEVICE/App/usb_device.c **** 
  67:USB_DEVICE/App/usb_device.c **** /* USER CODE BEGIN PFP */
  68:USB_DEVICE/App/usb_device.c **** /* Private function prototypes -----------------------------------------------*/
  69:USB_DEVICE/App/usb_device.c **** 
  70:USB_DEVICE/App/usb_device.c **** /* USER CODE END PFP */
  71:USB_DEVICE/App/usb_device.c **** 
  72:USB_DEVICE/App/usb_device.c **** /* Return USBD_OK if the Battery Charging Detection mode (BCD) is used, else USBD_FAIL. */
  73:USB_DEVICE/App/usb_device.c **** extern USBD_StatusTypeDef USBD_LL_BatteryCharging(USBD_HandleTypeDef *pdev);
  74:USB_DEVICE/App/usb_device.c **** 
  75:USB_DEVICE/App/usb_device.c **** /* USB Device Core handle declaration. */
  76:USB_DEVICE/App/usb_device.c **** USBD_HandleTypeDef hUsbDeviceFS;
  77:USB_DEVICE/App/usb_device.c **** 
  78:USB_DEVICE/App/usb_device.c **** /*
  79:USB_DEVICE/App/usb_device.c ****  * -- Insert your variables declaration here --
  80:USB_DEVICE/App/usb_device.c ****  */
  81:USB_DEVICE/App/usb_device.c **** /* USER CODE BEGIN 0 */
  82:USB_DEVICE/App/usb_device.c **** 
  83:USB_DEVICE/App/usb_device.c **** /* USER CODE END 0 */
  84:USB_DEVICE/App/usb_device.c **** 
  85:USB_DEVICE/App/usb_device.c **** /*
  86:USB_DEVICE/App/usb_device.c ****  * -- Insert your external function declaration here --
  87:USB_DEVICE/App/usb_device.c ****  */
ARM GAS  /tmp/cc9Z61bO.s 			page 3


  88:USB_DEVICE/App/usb_device.c **** /* USER CODE BEGIN 1 */
  89:USB_DEVICE/App/usb_device.c **** 
  90:USB_DEVICE/App/usb_device.c **** /* USER CODE END 1 */
  91:USB_DEVICE/App/usb_device.c **** 
  92:USB_DEVICE/App/usb_device.c **** /**
  93:USB_DEVICE/App/usb_device.c ****   * Init USB device Library, add supported class and start the library
  94:USB_DEVICE/App/usb_device.c ****   * @retval None
  95:USB_DEVICE/App/usb_device.c ****   */
  96:USB_DEVICE/App/usb_device.c **** void MX_USB_DEVICE_Init(void)
  97:USB_DEVICE/App/usb_device.c **** {
  29              		.loc 1 97 0
  30              		.cfi_startproc
  31              		@ args = 0, pretend = 0, frame = 0
  32              		@ frame_needed = 0, uses_anonymous_args = 0
  33 0000 08B5     		push	{r3, lr}
  34              	.LCFI0:
  35              		.cfi_def_cfa_offset 8
  36              		.cfi_offset 3, -8
  37              		.cfi_offset 14, -4
  98:USB_DEVICE/App/usb_device.c ****   /* USER CODE BEGIN USB_DEVICE_Init_PreTreatment */
  99:USB_DEVICE/App/usb_device.c ****   
 100:USB_DEVICE/App/usb_device.c ****   /* USER CODE END USB_DEVICE_Init_PreTreatment */
 101:USB_DEVICE/App/usb_device.c ****   
 102:USB_DEVICE/App/usb_device.c ****   /* Init Device Library, add supported class and start the library. */
 103:USB_DEVICE/App/usb_device.c ****   USBD_Init(&hUsbDeviceFS, &FS_Desc, DEVICE_FS);
  38              		.loc 1 103 0
  39 0002 0022     		movs	r2, #0
  40 0004 0A49     		ldr	r1, .L6
  41 0006 0B48     		ldr	r0, .L6+4
  42 0008 FFF7FEFF 		bl	USBD_Init
  43              	.LVL0:
 104:USB_DEVICE/App/usb_device.c ****   USBD_RegisterClass(&hUsbDeviceFS, &USBD_CUSTOM_HID);
  44              		.loc 1 104 0
  45 000c 0A49     		ldr	r1, .L6+8
  46 000e 0948     		ldr	r0, .L6+4
  47 0010 FFF7FEFF 		bl	USBD_RegisterClass
  48              	.LVL1:
 105:USB_DEVICE/App/usb_device.c ****   USBD_CUSTOM_HID_RegisterInterface(&hUsbDeviceFS, &USBD_CustomHID_fops_FS);
  49              		.loc 1 105 0
  50 0014 0949     		ldr	r1, .L6+12
  51 0016 0748     		ldr	r0, .L6+4
  52 0018 FFF7FEFF 		bl	USBD_CUSTOM_HID_RegisterInterface
  53              	.LVL2:
 106:USB_DEVICE/App/usb_device.c ****   /* Verify if the Battery Charging Detection mode (BCD) is used : */
 107:USB_DEVICE/App/usb_device.c ****   /* If yes, the USB device is started in the HAL_PCDEx_BCD_Callback */
 108:USB_DEVICE/App/usb_device.c ****   /* upon reception of PCD_BCD_DISCOVERY_COMPLETED message. */
 109:USB_DEVICE/App/usb_device.c ****   /* If no, the USB device is started now. */
 110:USB_DEVICE/App/usb_device.c ****   if (USBD_LL_BatteryCharging(&hUsbDeviceFS) != USBD_OK) {
  54              		.loc 1 110 0
  55 001c 0548     		ldr	r0, .L6+4
  56 001e FFF7FEFF 		bl	USBD_LL_BatteryCharging
  57              	.LVL3:
  58 0022 00B9     		cbnz	r0, .L5
 111:USB_DEVICE/App/usb_device.c ****   USBD_Start(&hUsbDeviceFS);
 112:USB_DEVICE/App/usb_device.c ****   }
 113:USB_DEVICE/App/usb_device.c ****   /* USER CODE BEGIN USB_DEVICE_Init_PostTreatment */
 114:USB_DEVICE/App/usb_device.c ****   
ARM GAS  /tmp/cc9Z61bO.s 			page 4


 115:USB_DEVICE/App/usb_device.c ****   /* USER CODE END USB_DEVICE_Init_PostTreatment */
 116:USB_DEVICE/App/usb_device.c **** }
  59              		.loc 1 116 0
  60 0024 08BD     		pop	{r3, pc}
  61              	.L5:
 111:USB_DEVICE/App/usb_device.c ****   USBD_Start(&hUsbDeviceFS);
  62              		.loc 1 111 0
  63 0026 0348     		ldr	r0, .L6+4
  64              		.loc 1 116 0
  65 0028 BDE80840 		pop	{r3, lr}
  66              	.LCFI1:
  67              		.cfi_restore 14
  68              		.cfi_restore 3
  69              		.cfi_def_cfa_offset 0
 111:USB_DEVICE/App/usb_device.c ****   USBD_Start(&hUsbDeviceFS);
  70              		.loc 1 111 0
  71 002c FFF7FEBF 		b	USBD_Start
  72              	.LVL4:
  73              	.L7:
  74              		.align	2
  75              	.L6:
  76 0030 00000000 		.word	FS_Desc
  77 0034 00000000 		.word	hUsbDeviceFS
  78 0038 00000000 		.word	USBD_CUSTOM_HID
  79 003c 00000000 		.word	USBD_CustomHID_fops_FS
  80              		.cfi_endproc
  81              	.LFE126:
  83              		.section	.text.HAL_PCDEx_BCD_Callback,"ax",%progbits
  84              		.align	1
  85              		.p2align 2,,3
  86              		.global	HAL_PCDEx_BCD_Callback
  87              		.syntax unified
  88              		.thumb
  89              		.thumb_func
  90              		.fpu fpv4-sp-d16
  92              	HAL_PCDEx_BCD_Callback:
  93              	.LFB127:
 117:USB_DEVICE/App/usb_device.c **** 
 118:USB_DEVICE/App/usb_device.c **** /**
 119:USB_DEVICE/App/usb_device.c ****   * @brief  Send BCD message to user layer
 120:USB_DEVICE/App/usb_device.c ****   * @param  hpcd: PCD handle
 121:USB_DEVICE/App/usb_device.c ****   * @param  msg: LPM message
 122:USB_DEVICE/App/usb_device.c ****   * @retval None
 123:USB_DEVICE/App/usb_device.c ****   */
 124:USB_DEVICE/App/usb_device.c **** void HAL_PCDEx_BCD_Callback(PCD_HandleTypeDef *hpcd, PCD_BCD_MsgTypeDef msg)
 125:USB_DEVICE/App/usb_device.c **** {
  94              		.loc 1 125 0
  95              		.cfi_startproc
  96              		@ args = 0, pretend = 0, frame = 672
  97              		@ frame_needed = 0, uses_anonymous_args = 0
  98              	.LVL5:
  99 0000 30B5     		push	{r4, r5, lr}
 100              	.LCFI2:
 101              		.cfi_def_cfa_offset 12
 102              		.cfi_offset 4, -12
 103              		.cfi_offset 5, -8
 104              		.cfi_offset 14, -4
ARM GAS  /tmp/cc9Z61bO.s 			page 5


 105 0002 0446     		mov	r4, r0
 106 0004 ADF5297D 		sub	sp, sp, #676
 107              	.LCFI3:
 108              		.cfi_def_cfa_offset 688
 109              		.loc 1 125 0
 110 0008 0D46     		mov	r5, r1
 126:USB_DEVICE/App/usb_device.c ****   USBD_HandleTypeDef usbdHandle = hUsbDeviceFS;
 111              		.loc 1 126 0
 112 000a 01A8     		add	r0, sp, #4
 113              	.LVL6:
 114 000c 4FF42772 		mov	r2, #668
 115 0010 0849     		ldr	r1, .L13
 116              	.LVL7:
 117 0012 FFF7FEFF 		bl	memcpy
 118              	.LVL8:
 127:USB_DEVICE/App/usb_device.c **** 
 128:USB_DEVICE/App/usb_device.c ****   /* USER CODE BEGIN 7 */
 129:USB_DEVICE/App/usb_device.c ****   if (hpcd->battery_charging_active == ENABLE)
 119              		.loc 1 129 0
 120 0016 D4F80034 		ldr	r3, [r4, #1024]
 121 001a 012B     		cmp	r3, #1
 122 001c 02D0     		beq	.L12
 123              	.L8:
 130:USB_DEVICE/App/usb_device.c ****   {
 131:USB_DEVICE/App/usb_device.c ****     switch(msg)
 132:USB_DEVICE/App/usb_device.c ****     {
 133:USB_DEVICE/App/usb_device.c ****       case PCD_BCD_CONTACT_DETECTION:
 134:USB_DEVICE/App/usb_device.c **** 
 135:USB_DEVICE/App/usb_device.c ****       break;
 136:USB_DEVICE/App/usb_device.c **** 
 137:USB_DEVICE/App/usb_device.c ****       case PCD_BCD_STD_DOWNSTREAM_PORT:
 138:USB_DEVICE/App/usb_device.c **** 
 139:USB_DEVICE/App/usb_device.c ****       break;
 140:USB_DEVICE/App/usb_device.c **** 
 141:USB_DEVICE/App/usb_device.c ****       case PCD_BCD_CHARGING_DOWNSTREAM_PORT:
 142:USB_DEVICE/App/usb_device.c **** 
 143:USB_DEVICE/App/usb_device.c ****       break;
 144:USB_DEVICE/App/usb_device.c **** 
 145:USB_DEVICE/App/usb_device.c ****       case PCD_BCD_DEDICATED_CHARGING_PORT:
 146:USB_DEVICE/App/usb_device.c **** 
 147:USB_DEVICE/App/usb_device.c ****       break;
 148:USB_DEVICE/App/usb_device.c **** 
 149:USB_DEVICE/App/usb_device.c ****       case PCD_BCD_DISCOVERY_COMPLETED:
 150:USB_DEVICE/App/usb_device.c ****         USBD_Start(&usbdHandle);
 151:USB_DEVICE/App/usb_device.c ****       break;
 152:USB_DEVICE/App/usb_device.c **** 
 153:USB_DEVICE/App/usb_device.c ****       case PCD_BCD_ERROR:
 154:USB_DEVICE/App/usb_device.c ****       default:
 155:USB_DEVICE/App/usb_device.c ****       break;
 156:USB_DEVICE/App/usb_device.c ****     }
 157:USB_DEVICE/App/usb_device.c ****   }
 158:USB_DEVICE/App/usb_device.c ****   /* USER CODE END 7 */
 159:USB_DEVICE/App/usb_device.c **** }
 124              		.loc 1 159 0
 125 001e 0DF5297D 		add	sp, sp, #676
 126              	.LCFI4:
 127              		.cfi_remember_state
ARM GAS  /tmp/cc9Z61bO.s 			page 6


 128              		.cfi_def_cfa_offset 12
 129              		@ sp needed
 130 0022 30BD     		pop	{r4, r5, pc}
 131              	.LVL9:
 132              	.L12:
 133              	.LCFI5:
 134              		.cfi_restore_state
 131:USB_DEVICE/App/usb_device.c ****     {
 135              		.loc 1 131 0
 136 0024 002D     		cmp	r5, #0
 137 0026 FAD1     		bne	.L8
 150:USB_DEVICE/App/usb_device.c ****       break;
 138              		.loc 1 150 0
 139 0028 01A8     		add	r0, sp, #4
 140 002a FFF7FEFF 		bl	USBD_Start
 141              	.LVL10:
 142              		.loc 1 159 0
 143 002e 0DF5297D 		add	sp, sp, #676
 144              	.LCFI6:
 145              		.cfi_def_cfa_offset 12
 146              		@ sp needed
 147 0032 30BD     		pop	{r4, r5, pc}
 148              	.LVL11:
 149              	.L14:
 150              		.align	2
 151              	.L13:
 152 0034 00000000 		.word	hUsbDeviceFS
 153              		.cfi_endproc
 154              	.LFE127:
 156              		.comm	hUsbDeviceFS,668,4
 157              		.text
 158              	.Letext0:
 159              		.file 2 "/home/fanning/workspace/tools/gcc-arm-none-eabi-7-2017-q4-major/arm-none-eabi/include/mac
 160              		.file 3 "/home/fanning/workspace/tools/gcc-arm-none-eabi-7-2017-q4-major/arm-none-eabi/include/sys
 161              		.file 4 "Drivers/CMSIS/Include/core_cm4.h"
 162              		.file 5 "Drivers/CMSIS/Device/ST/STM32L4xx/Include/system_stm32l4xx.h"
 163              		.file 6 "Drivers/CMSIS/Device/ST/STM32L4xx/Include/stm32l4r5xx.h"
 164              		.file 7 "Drivers/CMSIS/Device/ST/STM32L4xx/Include/stm32l4xx.h"
 165              		.file 8 "Drivers/STM32L4xx_HAL_Driver/Inc/stm32l4xx_hal_def.h"
 166              		.file 9 "Drivers/STM32L4xx_HAL_Driver/Inc/stm32l4xx_ll_usb.h"
 167              		.file 10 "Drivers/STM32L4xx_HAL_Driver/Inc/stm32l4xx_hal_pcd.h"
 168              		.file 11 "Drivers/STM32L4xx_HAL_Driver/Inc/stm32l4xx_hal.h"
 169              		.file 12 "/home/fanning/workspace/tools/gcc-arm-none-eabi-7-2017-q4-major/arm-none-eabi/include/sy
 170              		.file 13 "/home/fanning/workspace/tools/gcc-arm-none-eabi-7-2017-q4-major/arm-none-eabi/include/sy
 171              		.file 14 "/home/fanning/workspace/tools/gcc-arm-none-eabi-7-2017-q4-major/lib/gcc/arm-none-eabi/7.
 172              		.file 15 "/home/fanning/workspace/tools/gcc-arm-none-eabi-7-2017-q4-major/arm-none-eabi/include/sy
 173              		.file 16 "/home/fanning/workspace/tools/gcc-arm-none-eabi-7-2017-q4-major/arm-none-eabi/include/st
 174              		.file 17 "Middlewares/ST/STM32_USB_Device_Library/Core/Inc/usbd_def.h"
 175              		.file 18 "USB_DEVICE/App/usbd_desc.h"
 176              		.file 19 "Middlewares/ST/STM32_USB_Device_Library/Class/CustomHID/Inc/usbd_customhid.h"
 177              		.file 20 "USB_DEVICE/App/usbd_custom_hid_if.h"
 178              		.file 21 "Middlewares/ST/STM32_USB_Device_Library/Core/Inc/usbd_core.h"
 179              		.file 22 "<built-in>"
ARM GAS  /tmp/cc9Z61bO.s 			page 7


DEFINED SYMBOLS
                            *ABS*:0000000000000000 usb_device.c
     /tmp/cc9Z61bO.s:18     .text.MX_USB_DEVICE_Init:0000000000000000 $t
     /tmp/cc9Z61bO.s:26     .text.MX_USB_DEVICE_Init:0000000000000000 MX_USB_DEVICE_Init
     /tmp/cc9Z61bO.s:76     .text.MX_USB_DEVICE_Init:0000000000000030 $d
                            *COM*:000000000000029c hUsbDeviceFS
     /tmp/cc9Z61bO.s:84     .text.HAL_PCDEx_BCD_Callback:0000000000000000 $t
     /tmp/cc9Z61bO.s:92     .text.HAL_PCDEx_BCD_Callback:0000000000000000 HAL_PCDEx_BCD_Callback
     /tmp/cc9Z61bO.s:152    .text.HAL_PCDEx_BCD_Callback:0000000000000034 $d

UNDEFINED SYMBOLS
USBD_Init
USBD_RegisterClass
USBD_CUSTOM_HID_RegisterInterface
USBD_LL_BatteryCharging
USBD_Start
FS_Desc
USBD_CUSTOM_HID
USBD_CustomHID_fops_FS
memcpy
